{
    "contractName": "Crabada",
    "abi": [
        {
            "inputs": [
                {
                    "internalType": "string",
                    "name": "baseURI_",
                    "type": "string"
                },
                {
                    "internalType": "contract IERC20",
                    "name": "cra_",
                    "type": "address"
                },
                {
                    "internalType": "contract IERC20",
                    "name": "tus_",
                    "type": "address"
                },
                {
                    "internalType": "address",
                    "name": "feeAddress_",
                    "type": "address"
                },
                {
                    "internalType": "uint256",
                    "name": "craFee_",
                    "type": "uint256"
                },
                {
                    "internalType": "uint256",
                    "name": "tusFee_",
                    "type": "uint256"
                }
            ],
            "stateMutability": "nonpayable",
            "type": "constructor"
        },
        {
            "anonymous": false,
            "inputs": [
                {
                    "indexed": true,
                    "internalType": "address",
                    "name": "owner",
                    "type": "address"
                },
                {
                    "indexed": true,
                    "internalType": "address",
                    "name": "approved",
                    "type": "address"
                },
                {
                    "indexed": true,
                    "internalType": "uint256",
                    "name": "tokenId",
                    "type": "uint256"
                }
            ],
            "name": "Approval",
            "type": "event"
        },
        {
            "anonymous": false,
            "inputs": [
                {
                    "indexed": true,
                    "internalType": "address",
                    "name": "owner",
                    "type": "address"
                },
                {
                    "indexed": true,
                    "internalType": "address",
                    "name": "operator",
                    "type": "address"
                },
                {
                    "indexed": false,
                    "internalType": "bool",
                    "name": "approved",
                    "type": "bool"
                }
            ],
            "name": "ApprovalForAll",
            "type": "event"
        },
        {
            "anonymous": false,
            "inputs": [
                {
                    "indexed": true,
                    "internalType": "uint256",
                    "name": "tokenId",
                    "type": "uint256"
                },
                {
                    "indexed": false,
                    "internalType": "uint256",
                    "name": "daddyId",
                    "type": "uint256"
                },
                {
                    "indexed": false,
                    "internalType": "uint256",
                    "name": "mommyId",
                    "type": "uint256"
                }
            ],
            "name": "Breed",
            "type": "event"
        },
        {
            "anonymous": false,
            "inputs": [
                {
                    "indexed": true,
                    "internalType": "uint256",
                    "name": "tokenId",
                    "type": "uint256"
                },
                {
                    "indexed": false,
                    "internalType": "uint256",
                    "name": "dna",
                    "type": "uint256"
                }
            ],
            "name": "Hatch",
            "type": "event"
        },
        {
            "anonymous": false,
            "inputs": [
                {
                    "indexed": true,
                    "internalType": "address",
                    "name": "previousOwner",
                    "type": "address"
                },
                {
                    "indexed": true,
                    "internalType": "address",
                    "name": "newOwner",
                    "type": "address"
                }
            ],
            "name": "OwnershipTransferred",
            "type": "event"
        },
        {
            "anonymous": false,
            "inputs": [
                {
                    "indexed": false,
                    "internalType": "uint256",
                    "name": "craFee",
                    "type": "uint256"
                },
                {
                    "indexed": false,
                    "internalType": "uint256",
                    "name": "tusFee",
                    "type": "uint256"
                }
            ],
            "name": "SetBreedingFee",
            "type": "event"
        },
        {
            "anonymous": false,
            "inputs": [
                {
                    "indexed": false,
                    "internalType": "uint256",
                    "name": "inSecond",
                    "type": "uint256"
                }
            ],
            "name": "SetHatchDuration",
            "type": "event"
        },
        {
            "anonymous": false,
            "inputs": [
                {
                    "indexed": true,
                    "internalType": "address",
                    "name": "from",
                    "type": "address"
                },
                {
                    "indexed": true,
                    "internalType": "address",
                    "name": "to",
                    "type": "address"
                },
                {
                    "indexed": true,
                    "internalType": "uint256",
                    "name": "tokenId",
                    "type": "uint256"
                }
            ],
            "name": "Transfer",
            "type": "event"
        },
        {
            "inputs": [
                {
                    "internalType": "address",
                    "name": "to",
                    "type": "address"
                },
                {
                    "internalType": "uint256",
                    "name": "tokenId",
                    "type": "uint256"
                }
            ],
            "name": "approve",
            "outputs": [],
            "stateMutability": "nonpayable",
            "type": "function"
        },
        {
            "inputs": [
                {
                    "internalType": "address",
                    "name": "owner",
                    "type": "address"
                }
            ],
            "name": "balanceOf",
            "outputs": [
                {
                    "internalType": "uint256",
                    "name": "",
                    "type": "uint256"
                }
            ],
            "stateMutability": "view",
            "type": "function"
        },
        {
            "inputs": [],
            "name": "breedingLimit",
            "outputs": [
                {
                    "internalType": "uint256",
                    "name": "",
                    "type": "uint256"
                }
            ],
            "stateMutability": "view",
            "type": "function"
        },
        {
            "inputs": [],
            "name": "cra",
            "outputs": [
                {
                    "internalType": "contract IERC20",
                    "name": "",
                    "type": "address"
                }
            ],
            "stateMutability": "view",
            "type": "function"
        },
        {
            "inputs": [],
            "name": "craFee",
            "outputs": [
                {
                    "internalType": "uint256",
                    "name": "",
                    "type": "uint256"
                }
            ],
            "stateMutability": "view",
            "type": "function"
        },
        {
            "inputs": [
                {
                    "internalType": "uint256",
                    "name": "",
                    "type": "uint256"
                }
            ],
            "name": "crabadaInfo",
            "outputs": [
                {
                    "internalType": "uint256",
                    "name": "daddyId",
                    "type": "uint256"
                },
                {
                    "internalType": "uint256",
                    "name": "mommyId",
                    "type": "uint256"
                },
                {
                    "internalType": "uint256",
                    "name": "dna",
                    "type": "uint256"
                },
                {
                    "internalType": "uint64",
                    "name": "birthday",
                    "type": "uint64"
                },
                {
                    "internalType": "uint8",
                    "name": "breedingCount",
                    "type": "uint8"
                }
            ],
            "stateMutability": "view",
            "type": "function"
        },
        {
            "inputs": [],
            "name": "feeAddress",
            "outputs": [
                {
                    "internalType": "address",
                    "name": "",
                    "type": "address"
                }
            ],
            "stateMutability": "view",
            "type": "function"
        },
        {
            "inputs": [],
            "name": "genCore",
            "outputs": [
                {
                    "internalType": "contract IGenCore",
                    "name": "",
                    "type": "address"
                }
            ],
            "stateMutability": "view",
            "type": "function"
        },
        {
            "inputs": [
                {
                    "internalType": "uint256",
                    "name": "tokenId",
                    "type": "uint256"
                }
            ],
            "name": "getApproved",
            "outputs": [
                {
                    "internalType": "address",
                    "name": "",
                    "type": "address"
                }
            ],
            "stateMutability": "view",
            "type": "function"
        },
        {
            "inputs": [],
            "name": "hatchDuration",
            "outputs": [
                {
                    "internalType": "uint256",
                    "name": "",
                    "type": "uint256"
                }
            ],
            "stateMutability": "view",
            "type": "function"
        },
        {
            "inputs": [
                {
                    "internalType": "address",
                    "name": "owner",
                    "type": "address"
                },
                {
                    "internalType": "address",
                    "name": "operator",
                    "type": "address"
                }
            ],
            "name": "isApprovedForAll",
            "outputs": [
                {
                    "internalType": "bool",
                    "name": "",
                    "type": "bool"
                }
            ],
            "stateMutability": "view",
            "type": "function"
        },
        {
            "inputs": [],
            "name": "name",
            "outputs": [
                {
                    "internalType": "string",
                    "name": "",
                    "type": "string"
                }
            ],
            "stateMutability": "view",
            "type": "function"
        },
        {
            "inputs": [],
            "name": "owner",
            "outputs": [
                {
                    "internalType": "address",
                    "name": "",
                    "type": "address"
                }
            ],
            "stateMutability": "view",
            "type": "function"
        },
        {
            "inputs": [
                {
                    "internalType": "uint256",
                    "name": "tokenId",
                    "type": "uint256"
                }
            ],
            "name": "ownerOf",
            "outputs": [
                {
                    "internalType": "address",
                    "name": "",
                    "type": "address"
                }
            ],
            "stateMutability": "view",
            "type": "function"
        },
        {
            "inputs": [],
            "name": "renounceOwnership",
            "outputs": [],
            "stateMutability": "nonpayable",
            "type": "function"
        },
        {
            "inputs": [
                {
                    "internalType": "address",
                    "name": "from",
                    "type": "address"
                },
                {
                    "internalType": "address",
                    "name": "to",
                    "type": "address"
                },
                {
                    "internalType": "uint256",
                    "name": "tokenId",
                    "type": "uint256"
                }
            ],
            "name": "safeTransferFrom",
            "outputs": [],
            "stateMutability": "nonpayable",
            "type": "function"
        },
        {
            "inputs": [
                {
                    "internalType": "address",
                    "name": "from",
                    "type": "address"
                },
                {
                    "internalType": "address",
                    "name": "to",
                    "type": "address"
                },
                {
                    "internalType": "uint256",
                    "name": "tokenId",
                    "type": "uint256"
                },
                {
                    "internalType": "bytes",
                    "name": "_data",
                    "type": "bytes"
                }
            ],
            "name": "safeTransferFrom",
            "outputs": [],
            "stateMutability": "nonpayable",
            "type": "function"
        },
        {
            "inputs": [
                {
                    "internalType": "address",
                    "name": "operator",
                    "type": "address"
                },
                {
                    "internalType": "bool",
                    "name": "approved",
                    "type": "bool"
                }
            ],
            "name": "setApprovalForAll",
            "outputs": [],
            "stateMutability": "nonpayable",
            "type": "function"
        },
        {
            "inputs": [
                {
                    "internalType": "bytes4",
                    "name": "interfaceId",
                    "type": "bytes4"
                }
            ],
            "name": "supportsInterface",
            "outputs": [
                {
                    "internalType": "bool",
                    "name": "",
                    "type": "bool"
                }
            ],
            "stateMutability": "view",
            "type": "function"
        },
        {
            "inputs": [],
            "name": "symbol",
            "outputs": [
                {
                    "internalType": "string",
                    "name": "",
                    "type": "string"
                }
            ],
            "stateMutability": "view",
            "type": "function"
        },
        {
            "inputs": [
                {
                    "internalType": "uint256",
                    "name": "tokenId",
                    "type": "uint256"
                }
            ],
            "name": "tokenURI",
            "outputs": [
                {
                    "internalType": "string",
                    "name": "",
                    "type": "string"
                }
            ],
            "stateMutability": "view",
            "type": "function"
        },
        {
            "inputs": [
                {
                    "internalType": "address",
                    "name": "from",
                    "type": "address"
                },
                {
                    "internalType": "address",
                    "name": "to",
                    "type": "address"
                },
                {
                    "internalType": "uint256",
                    "name": "tokenId",
                    "type": "uint256"
                }
            ],
            "name": "transferFrom",
            "outputs": [],
            "stateMutability": "nonpayable",
            "type": "function"
        },
        {
            "inputs": [
                {
                    "internalType": "address",
                    "name": "newOwner",
                    "type": "address"
                }
            ],
            "name": "transferOwnership",
            "outputs": [],
            "stateMutability": "nonpayable",
            "type": "function"
        },
        {
            "inputs": [],
            "name": "tus",
            "outputs": [
                {
                    "internalType": "contract IERC20",
                    "name": "",
                    "type": "address"
                }
            ],
            "stateMutability": "view",
            "type": "function"
        },
        {
            "inputs": [],
            "name": "tusFee",
            "outputs": [
                {
                    "internalType": "uint256",
                    "name": "",
                    "type": "uint256"
                }
            ],
            "stateMutability": "view",
            "type": "function"
        },
        {
            "inputs": [
                {
                    "internalType": "address",
                    "name": "account",
                    "type": "address"
                },
                {
                    "internalType": "uint256",
                    "name": "dna",
                    "type": "uint256"
                }
            ],
            "name": "mint",
            "outputs": [],
            "stateMutability": "nonpayable",
            "type": "function"
        },
        {
            "inputs": [
                {
                    "internalType": "uint256",
                    "name": "daddyId",
                    "type": "uint256"
                },
                {
                    "internalType": "uint256",
                    "name": "mommyId",
                    "type": "uint256"
                }
            ],
            "name": "breed",
            "outputs": [],
            "stateMutability": "nonpayable",
            "type": "function"
        },
        {
            "inputs": [
                {
                    "internalType": "uint256",
                    "name": "tokenId",
                    "type": "uint256"
                }
            ],
            "name": "hatchOut",
            "outputs": [],
            "stateMutability": "nonpayable",
            "type": "function"
        },
        {
            "inputs": [
                {
                    "internalType": "uint256",
                    "name": "tokenId",
                    "type": "uint256"
                }
            ],
            "name": "getParentsInfo",
            "outputs": [
                {
                    "internalType": "uint256",
                    "name": "",
                    "type": "uint256"
                },
                {
                    "internalType": "uint256",
                    "name": "",
                    "type": "uint256"
                },
                {
                    "internalType": "uint256",
                    "name": "",
                    "type": "uint256"
                },
                {
                    "internalType": "uint256",
                    "name": "",
                    "type": "uint256"
                }
            ],
            "stateMutability": "nonpayable",
            "type": "function"
        },
        {
            "inputs": [
                {
                    "internalType": "contract IGenCore",
                    "name": "_genCore",
                    "type": "address"
                }
            ],
            "name": "setGenCore",
            "outputs": [],
            "stateMutability": "nonpayable",
            "type": "function"
        },
        {
            "inputs": [
                {
                    "internalType": "uint256",
                    "name": "_craFee",
                    "type": "uint256"
                },
                {
                    "internalType": "uint256",
                    "name": "_tusFee",
                    "type": "uint256"
                }
            ],
            "name": "setBreedingFee",
            "outputs": [],
            "stateMutability": "nonpayable",
            "type": "function"
        },
        {
            "inputs": [
                {
                    "internalType": "uint256",
                    "name": "inSeconds",
                    "type": "uint256"
                }
            ],
            "name": "setHatchDuration",
            "outputs": [],
            "stateMutability": "nonpayable",
            "type": "function"
        },
        {
            "inputs": [
                {
                    "internalType": "string",
                    "name": "baseURI_",
                    "type": "string"
                }
            ],
            "name": "changeBaseURI",
            "outputs": [],
            "stateMutability": "nonpayable",
            "type": "function"
        },
        {
            "inputs": [
                {
                    "internalType": "uint256",
                    "name": "tokenId",
                    "type": "uint256"
                }
            ],
            "name": "getCrabadaAttributes",
            "outputs": [
                {
                    "internalType": "uint8",
                    "name": "attr0",
                    "type": "uint8"
                },
                {
                    "internalType": "uint8",
                    "name": "attr1",
                    "type": "uint8"
                },
                {
                    "internalType": "uint8",
                    "name": "attr2",
                    "type": "uint8"
                },
                {
                    "internalType": "uint8",
                    "name": "attr3",
                    "type": "uint8"
                },
                {
                    "internalType": "uint8",
                    "name": "attr4",
                    "type": "uint8"
                },
                {
                    "internalType": "uint8",
                    "name": "attr5",
                    "type": "uint8"
                },
                {
                    "internalType": "uint8",
                    "name": "attr6",
                    "type": "uint8"
                },
                {
                    "internalType": "uint8",
                    "name": "attr7",
                    "type": "uint8"
                }
            ],
            "stateMutability": "nonpayable",
            "type": "function"
        },
        {
            "inputs": [
                {
                    "internalType": "uint256",
                    "name": "tokenId",
                    "type": "uint256"
                }
            ],
            "name": "getCrabadaProperties",
            "outputs": [
                {
                    "internalType": "uint8",
                    "name": "crabaType",
                    "type": "uint8"
                },
                {
                    "internalType": "uint8",
                    "name": "crabaClass",
                    "type": "uint8"
                },
                {
                    "internalType": "uint8",
                    "name": "rare0",
                    "type": "uint8"
                },
                {
                    "internalType": "uint8",
                    "name": "rare1",
                    "type": "uint8"
                },
                {
                    "internalType": "uint8",
                    "name": "rare2",
                    "type": "uint8"
                },
                {
                    "internalType": "uint8",
                    "name": "rare3",
                    "type": "uint8"
                },
                {
                    "internalType": "uint8",
                    "name": "rare4",
                    "type": "uint8"
                },
                {
                    "internalType": "uint8",
                    "name": "rare5",
                    "type": "uint8"
                }
            ],
            "stateMutability": "nonpayable",
            "type": "function"
        }
    ],
    "bytecode": "0x60806040523480156200001157600080fd5b5060405162005fed38038062005fed833981810160405281019062000037919062000776565b6040518060400160405280600781526020017f43726162616461000000000000000000000000000000000000000000000000008152506040518060400160405280600781526020017f43726162616461000000000000000000000000000000000000000000000000008152508160009080519060200190620000bb9291906200060f565b508060019080519060200190620000d49291906200060f565b505050620000f7620000eb620002ea60201b60201c565b620002f260201b60201c565b85600790805190602001906200010f9291906200060f565b5084600a60006101000a81548173ffffffffffffffffffffffffffffffffffffffff021916908373ffffffffffffffffffffffffffffffffffffffff16021790555083600b60006101000a81548173ffffffffffffffffffffffffffffffffffffffff021916908373ffffffffffffffffffffffffffffffffffffffff16021790555082600c60006101000a81548173ffffffffffffffffffffffffffffffffffffffff021916908373ffffffffffffffffffffffffffffffffffffffff16021790555081600d8190555080600e8190555060006040518060a001604052806000815260200160008152602001700fffffffffffffffffffffffffffffffff8152602001600067ffffffffffffffff168152602001600060ff168152509050600881908060018154018082558091505060019003906000526020600020906004020160009091909190915060008201518160000155602082015181600101556040820151816002015560608201518160030160006101000a81548167ffffffffffffffff021916908367ffffffffffffffff16021790555060808201518160030160086101000a81548160ff021916908360ff1602179055505050620002dd336000620003b860201b60201c565b5050505050505062000bb6565b600033905090565b6000600660009054906101000a900473ffffffffffffffffffffffffffffffffffffffff16905081600660006101000a81548173ffffffffffffffffffffffffffffffffffffffff021916908373ffffffffffffffffffffffffffffffffffffffff1602179055508173ffffffffffffffffffffffffffffffffffffffff168173ffffffffffffffffffffffffffffffffffffffff167f8be0079c531659141344cd1fd0a4f28419497f9722a3daafe3b4186f6b6457e060405160405180910390a35050565b600073ffffffffffffffffffffffffffffffffffffffff168273ffffffffffffffffffffffffffffffffffffffff1614156200042b576040517f08c379a0000000000000000000000000000000000000000000000000000000008152600401620004229062000895565b60405180910390fd5b6200043c816200059e60201b60201c565b156200047f576040517f08c379a0000000000000000000000000000000000000000000000000000000008152600401620004769062000873565b60405180910390fd5b62000493600083836200060a60201b60201c565b6001600360008473ffffffffffffffffffffffffffffffffffffffff1673ffffffffffffffffffffffffffffffffffffffff1681526020019081526020016000206000828254620004e5919062000927565b92505081905550816002600083815260200190815260200160002060006101000a81548173ffffffffffffffffffffffffffffffffffffffff021916908373ffffffffffffffffffffffffffffffffffffffff160217905550808273ffffffffffffffffffffffffffffffffffffffff16600073ffffffffffffffffffffffffffffffffffffffff167fddf252ad1be2c89b69c2b068fc378daa952ba7f163c4a11628f55a4df523b3ef60405160405180910390a45050565b60008073ffffffffffffffffffffffffffffffffffffffff166002600084815260200190815260200160002060009054906101000a900473ffffffffffffffffffffffffffffffffffffffff1673ffffffffffffffffffffffffffffffffffffffff1614159050919050565b505050565b8280546200061d9062000a0c565b90600052602060002090601f0160209004810192826200064157600085556200068d565b82601f106200065c57805160ff19168380011785556200068d565b828001600101855582156200068d579182015b828111156200068c5782518255916020019190600101906200066f565b5b5090506200069c9190620006a0565b5090565b5b80821115620006bb576000816000905550600101620006a1565b5090565b6000620006d6620006d084620008e0565b620008b7565b905082815260208101848484011115620006ef57600080fd5b620006fc848285620009d6565b509392505050565b600081519050620007158162000b68565b92915050565b6000815190506200072c8162000b82565b92915050565b600082601f8301126200074457600080fd5b815162000756848260208601620006bf565b91505092915050565b600081519050620007708162000b9c565b92915050565b60008060008060008060c087890312156200079057600080fd5b600087015167ffffffffffffffff811115620007ab57600080fd5b620007b989828a0162000732565b9650506020620007cc89828a016200071b565b9550506040620007df89828a016200071b565b9450506060620007f289828a0162000704565b93505060806200080589828a016200075f565b92505060a06200081889828a016200075f565b9150509295509295509295565b600062000834601c8362000916565b9150620008418262000b16565b602082019050919050565b60006200085b60208362000916565b9150620008688262000b3f565b602082019050919050565b600060208201905081810360008301526200088e8162000825565b9050919050565b60006020820190508181036000830152620008b0816200084c565b9050919050565b6000620008c3620008d6565b9050620008d1828262000a42565b919050565b6000604051905090565b600067ffffffffffffffff821115620008fe57620008fd62000ad6565b5b620009098262000b05565b9050602081019050919050565b600082825260208201905092915050565b60006200093482620009cc565b91506200094183620009cc565b9250827fffffffffffffffffffffffffffffffffffffffffffffffffffffffffffffffff0382111562000979576200097862000a78565b5b828201905092915050565b60006200099182620009ac565b9050919050565b6000620009a58262000984565b9050919050565b600073ffffffffffffffffffffffffffffffffffffffff82169050919050565b6000819050919050565b60005b83811015620009f6578082015181840152602081019050620009d9565b8381111562000a06576000848401525b50505050565b6000600282049050600182168062000a2557607f821691505b6020821081141562000a3c5762000a3b62000aa7565b5b50919050565b62000a4d8262000b05565b810181811067ffffffffffffffff8211171562000a6f5762000a6e62000ad6565b5b80604052505050565b7f4e487b7100000000000000000000000000000000000000000000000000000000600052601160045260246000fd5b7f4e487b7100000000000000000000000000000000000000000000000000000000600052602260045260246000fd5b7f4e487b7100000000000000000000000000000000000000000000000000000000600052604160045260246000fd5b6000601f19601f8301169050919050565b7f4552433732313a20746f6b656e20616c7265616479206d696e74656400000000600082015250565b7f4552433732313a206d696e7420746f20746865207a65726f2061646472657373600082015250565b62000b738162000984565b811462000b7f57600080fd5b50565b62000b8d8162000998565b811462000b9957600080fd5b50565b62000ba781620009cc565b811462000bb357600080fd5b50565b6154278062000bc66000396000f3fe608060405234801561001057600080fd5b50600436106102115760003560e01c80636352211e11610125578063b88d4fde116100ad578063d9ecad7b1161007c578063d9ecad7b14610611578063e58f9ce61461062d578063e985e9c51461064b578063f2fde38b1461067b578063f73f1b1d1461069757610211565b8063b88d4fde14610574578063c87b56dd14610590578063d00657ae146105c0578063d9ccd94a146105f357610211565b8063715018a6116100f4578063715018a6146104db57806382f614ca146104e55780638da5cb5b1461051c57806395d89b411461053a578063a22cb4651461055857610211565b80636352211e146104415780636a6fe21d146104715780636b283a301461048d57806370a08231146104ab57610211565b806335f2e6f2116101a85780634127535811610177578063412753581461039857806342842e0e146103b65780634fbbedf7146103d257806352b369b9146103ee578063533376e21461042557610211565b806335f2e6f2146103265780633798b0901461034257806339a0c6f91461036057806340c10f191461037c57610211565b80630d7237c0116101e45780630d7237c0146102b057806317982da0146102ce57806321e2a94b146102ec57806323b872dd1461030a57610211565b806301ffc9a71461021657806306fdde0314610246578063081812fc14610264578063095ea7b314610294575b600080fd5b610230600480360381019061022b9190613a08565b6106cb565b60405161023d91906141c2565b60405180910390f35b61024e6107ad565b60405161025b9190614213565b60405180910390f35b61027e60048036038101906102799190613ac4565b61083f565b60405161028b9190614124565b60405180910390f35b6102ae60048036038101906102a991906139a3565b6108c4565b005b6102b86109dc565b6040516102c59190614575565b60405180910390f35b6102d66109e2565b6040516102e39190614575565b60405180910390f35b6102f46109e8565b6040516103019190614575565b60405180910390f35b610324600480360381019061031f919061389d565b6109ed565b005b610340600480360381019061033b9190613a5a565b610a4d565b005b61034a610b0d565b6040516103579190614575565b60405180910390f35b61037a60048036038101906103759190613a83565b610b13565b005b610396600480360381019061039191906139a3565b610ba9565b005b6103a0610d4e565b6040516103ad9190614124565b60405180910390f35b6103d060048036038101906103cb919061389d565b610d74565b005b6103ec60048036038101906103e79190613b16565b610d94565b005b61040860048036038101906104039190613ac4565b610e5b565b60405161041c989796959493929190614688565b60405180910390f35b61043f600480360381019061043a9190613ac4565b611463565b005b61045b60048036038101906104569190613ac4565b611520565b6040516104689190614124565b60405180910390f35b61048b60048036038101906104869190613ac4565b6115d2565b005b610495611844565b6040516104a291906141dd565b60405180910390f35b6104c560048036038101906104c09190613838565b61186a565b6040516104d29190614575565b60405180910390f35b6104e3611922565b005b6104ff60048036038101906104fa9190613ac4565b6119aa565b604051610513989796959493929190614688565b60405180910390f35b610524611b8b565b6040516105319190614124565b60405180910390f35b610542611bb5565b60405161054f9190614213565b60405180910390f35b610572600480360381019061056d9190613967565b611c47565b005b61058e600480360381019061058991906138ec565b611dc8565b005b6105aa60048036038101906105a59190613ac4565b611e2a565b6040516105b79190614213565b60405180910390f35b6105da60048036038101906105d59190613ac4565b611ed1565b6040516105ea94939291906145f0565b60405180910390f35b6105fb611fed565b60405161060891906141f8565b60405180910390f35b61062b60048036038101906106269190613b16565b612013565b005b610635612840565b60405161064291906141dd565b60405180910390f35b61066560048036038101906106609190613861565b612866565b60405161067291906141c2565b60405180910390f35b61069560048036038101906106909190613838565b6128fa565b005b6106b160048036038101906106ac9190613ac4565b6129f2565b6040516106c2959493929190614635565b60405180910390f35b60007f80ac58cd000000000000000000000000000000000000000000000000000000007bffffffffffffffffffffffffffffffffffffffffffffffffffffffff1916827bffffffffffffffffffffffffffffffffffffffffffffffffffffffff1916148061079657507f5b5e139f000000000000000000000000000000000000000000000000000000007bffffffffffffffffffffffffffffffffffffffffffffffffffffffff1916827bffffffffffffffffffffffffffffffffffffffffffffffffffffffff1916145b806107a657506107a582612a59565b5b9050919050565b6060600080546107bc90614bbe565b80601f01602080910402602001604051908101604052809291908181526020018280546107e890614bbe565b80156108355780601f1061080a57610100808354040283529160200191610835565b820191906000526020600020905b81548152906001019060200180831161081857829003601f168201915b5050505050905090565b600061084a82612ac3565b610889576040517f08c379a000000000000000000000000000000000000000000000000000000000815260040161088090614415565b60405180910390fd5b6004600083815260200190815260200160002060009054906101000a900473ffffffffffffffffffffffffffffffffffffffff169050919050565b60006108cf82611520565b90508073ffffffffffffffffffffffffffffffffffffffff168373ffffffffffffffffffffffffffffffffffffffff161415610940576040517f08c379a000000000000000000000000000000000000000000000000000000000815260040161093790614495565b60405180910390fd5b8073ffffffffffffffffffffffffffffffffffffffff1661095f612b2f565b73ffffffffffffffffffffffffffffffffffffffff16148061098e575061098d81610988612b2f565b612866565b5b6109cd576040517f08c379a00000000000000000000000000000000000000000000000000000000081526004016109c490614335565b60405180910390fd5b6109d78383612b37565b505050565b600e5481565b600f5481565b600981565b6109fe6109f8612b2f565b82612bf0565b610a3d576040517f08c379a0000000000000000000000000000000000000000000000000000000008152600401610a34906144f5565b60405180910390fd5b610a48838383612cce565b505050565b610a55612b2f565b73ffffffffffffffffffffffffffffffffffffffff16610a73611b8b565b73ffffffffffffffffffffffffffffffffffffffff1614610ac9576040517f08c379a0000000000000000000000000000000000000000000000000000000008152600401610ac090614435565b60405180910390fd5b80600960006101000a81548173ffffffffffffffffffffffffffffffffffffffff021916908373ffffffffffffffffffffffffffffffffffffffff16021790555050565b600d5481565b610b1b612b2f565b73ffffffffffffffffffffffffffffffffffffffff16610b39611b8b565b73ffffffffffffffffffffffffffffffffffffffff1614610b8f576040517f08c379a0000000000000000000000000000000000000000000000000000000008152600401610b8690614435565b60405180910390fd5b8060079080519060200190610ba5929190613608565b5050565b610bb1612b2f565b73ffffffffffffffffffffffffffffffffffffffff16610bcf611b8b565b73ffffffffffffffffffffffffffffffffffffffff1614610c25576040517f08c379a0000000000000000000000000000000000000000000000000000000008152600401610c1c90614435565b60405180910390fd5b60006008805490509050610c398382612f2a565b60006040518060a0016040528060008152602001600081526020018481526020014267ffffffffffffffff168152602001600060ff168152509050600881908060018154018082558091505060019003906000526020600020906004020160009091909190915060008201518160000155602082015181600101556040820151816002015560608201518160030160006101000a81548167ffffffffffffffff021916908367ffffffffffffffff16021790555060808201518160030160086101000a81548160ff021916908360ff1602179055505050817f9eb5d751fdacda23aa0f431a1dcc89b613b021eeb840b6aef154864399ac3b8984604051610d409190614575565b60405180910390a250505050565b600c60009054906101000a900473ffffffffffffffffffffffffffffffffffffffff1681565b610d8f83838360405180602001604052806000815250611dc8565b505050565b610d9c612b2f565b73ffffffffffffffffffffffffffffffffffffffff16610dba611b8b565b73ffffffffffffffffffffffffffffffffffffffff1614610e10576040517f08c379a0000000000000000000000000000000000000000000000000000000008152600401610e0790614435565b60405180910390fd5b81600d8190555080600e819055507f4cff8f66687eb114428d56bf9f72c381afe356cc195dcd2e52a1dd456d619c1f8282604051610e4f929190614590565b60405180910390a15050565b600080600080600080600080600060088a81548110610ea3577f4e487b7100000000000000000000000000000000000000000000000000000000600052603260045260246000fd5b9060005260206000209060040201600201549050600960009054906101000a900473ffffffffffffffffffffffffffffffffffffffff1673ffffffffffffffffffffffffffffffffffffffff166340f0493b826040518263ffffffff1660e01b8152600401610f129190614575565b606060405180830381600087803b158015610f2c57600080fd5b505af1158015610f40573d6000803e3d6000fd5b505050506040513d601f19601f82011682018060405250810190610f649190613b8e565b90505080995050600960009054906101000a900473ffffffffffffffffffffffffffffffffffffffff1673ffffffffffffffffffffffffffffffffffffffff166346bd3687826040518263ffffffff1660e01b8152600401610fc69190614575565b606060405180830381600087803b158015610fe057600080fd5b505af1158015610ff4573d6000803e3d6000fd5b505050506040513d601f19601f820116820180604052508101906110189190613b8e565b90505080985050600960009054906101000a900473ffffffffffffffffffffffffffffffffffffffff1673ffffffffffffffffffffffffffffffffffffffff1663f994901b826040518263ffffffff1660e01b815260040161107a9190614575565b606060405180830381600087803b15801561109457600080fd5b505af11580156110a8573d6000803e3d6000fd5b505050506040513d601f19601f820116820180604052508101906110cc9190613b8e565b90505080975050600960009054906101000a900473ffffffffffffffffffffffffffffffffffffffff1673ffffffffffffffffffffffffffffffffffffffff1663e2d9d014826040518263ffffffff1660e01b815260040161112e9190614575565b606060405180830381600087803b15801561114857600080fd5b505af115801561115c573d6000803e3d6000fd5b505050506040513d601f19601f820116820180604052508101906111809190613b8e565b90505080965050600960009054906101000a900473ffffffffffffffffffffffffffffffffffffffff1673ffffffffffffffffffffffffffffffffffffffff1663ff2bc761826040518263ffffffff1660e01b81526004016111e29190614575565b606060405180830381600087803b1580156111fc57600080fd5b505af1158015611210573d6000803e3d6000fd5b505050506040513d601f19601f820116820180604052508101906112349190613b8e565b90505080955050600960009054906101000a900473ffffffffffffffffffffffffffffffffffffffff1673ffffffffffffffffffffffffffffffffffffffff16633453e0ed826040518263ffffffff1660e01b81526004016112969190614575565b606060405180830381600087803b1580156112b057600080fd5b505af11580156112c4573d6000803e3d6000fd5b505050506040513d601f19601f820116820180604052508101906112e89190613b8e565b90505080945050600960009054906101000a900473ffffffffffffffffffffffffffffffffffffffff1673ffffffffffffffffffffffffffffffffffffffff16634422fb42826040518263ffffffff1660e01b815260040161134a9190614575565b606060405180830381600087803b15801561136457600080fd5b505af1158015611378573d6000803e3d6000fd5b505050506040513d601f19601f8201168201806040525081019061139c9190613b8e565b90505080935050600960009054906101000a900473ffffffffffffffffffffffffffffffffffffffff1673ffffffffffffffffffffffffffffffffffffffff1663418de78f826040518263ffffffff1660e01b81526004016113fe9190614575565b606060405180830381600087803b15801561141857600080fd5b505af115801561142c573d6000803e3d6000fd5b505050506040513d601f19601f820116820180604052508101906114509190613b8e565b9050508092505050919395975091939597565b61146b612b2f565b73ffffffffffffffffffffffffffffffffffffffff16611489611b8b565b73ffffffffffffffffffffffffffffffffffffffff16146114df576040517f08c379a00000000000000000000000000000000000000000000000000000000081526004016114d690614435565b60405180910390fd5b80600f819055507fd4e36c1917d86eccc9b3b106701b3e284d2ebfd13bebd49cb16a88705dbb614f816040516115159190614575565b60405180910390a150565b6000806002600084815260200190815260200160002060009054906101000a900473ffffffffffffffffffffffffffffffffffffffff169050600073ffffffffffffffffffffffffffffffffffffffff168173ffffffffffffffffffffffffffffffffffffffff1614156115c9576040517f08c379a00000000000000000000000000000000000000000000000000000000081526004016115c0906143b5565b60405180910390fd5b80915050919050565b3373ffffffffffffffffffffffffffffffffffffffff166115f282611520565b73ffffffffffffffffffffffffffffffffffffffff1614611648576040517f08c379a000000000000000000000000000000000000000000000000000000000815260040161163f90614535565b60405180910390fd5b600060088281548110611684577f4e487b7100000000000000000000000000000000000000000000000000000000600052603260045260246000fd5b90600052602060002090600402019050600f548160030160009054906101000a900467ffffffffffffffff1667ffffffffffffffff16426116c59190614a59565b1015611706576040517f08c379a00000000000000000000000000000000000000000000000000000000081526004016116fd906143f5565b60405180910390fd5b600081600201541461174d576040517f08c379a0000000000000000000000000000000000000000000000000000000008152600401611744906144b5565b60405180910390fd5b6000600960009054906101000a900473ffffffffffffffffffffffffffffffffffffffff1673ffffffffffffffffffffffffffffffffffffffff16636a6fe21d846040518263ffffffff1660e01b81526004016117aa9190614575565b602060405180830381600087803b1580156117c457600080fd5b505af11580156117d8573d6000803e3d6000fd5b505050506040513d601f19601f820116820180604052508101906117fc9190613aed565b9050808260020181905550827f9eb5d751fdacda23aa0f431a1dcc89b613b021eeb840b6aef154864399ac3b89826040516118379190614575565b60405180910390a2505050565b600b60009054906101000a900473ffffffffffffffffffffffffffffffffffffffff1681565b60008073ffffffffffffffffffffffffffffffffffffffff168273ffffffffffffffffffffffffffffffffffffffff1614156118db576040517f08c379a00000000000000000000000000000000000000000000000000000000081526004016118d290614395565b60405180910390fd5b600360008373ffffffffffffffffffffffffffffffffffffffff1673ffffffffffffffffffffffffffffffffffffffff168152602001908152602001600020549050919050565b61192a612b2f565b73ffffffffffffffffffffffffffffffffffffffff16611948611b8b565b73ffffffffffffffffffffffffffffffffffffffff161461199e576040517f08c379a000000000000000000000000000000000000000000000000000000000815260040161199590614435565b60405180910390fd5b6119a860006130f8565b565b600080600080600080600080600060088a815481106119f2577f4e487b7100000000000000000000000000000000000000000000000000000000600052603260045260246000fd5b9060005260206000209060040201600201549050600960009054906101000a900473ffffffffffffffffffffffffffffffffffffffff1673ffffffffffffffffffffffffffffffffffffffff16631aa517cf826040518263ffffffff1660e01b8152600401611a619190614575565b6040805180830381600087803b158015611a7a57600080fd5b505af1158015611a8e573d6000803e3d6000fd5b505050506040513d601f19601f82011682018060405250810190611ab29190613b52565b809950819a505050600960009054906101000a900473ffffffffffffffffffffffffffffffffffffffff1673ffffffffffffffffffffffffffffffffffffffff16634146945a826040518263ffffffff1660e01b8152600401611b159190614575565b60c060405180830381600087803b158015611b2f57600080fd5b505af1158015611b43573d6000803e3d6000fd5b505050506040513d601f19601f82011682018060405250810190611b679190613bdd565b809750819850829950839a50849b50859c5050505050505050919395975091939597565b6000600660009054906101000a900473ffffffffffffffffffffffffffffffffffffffff16905090565b606060018054611bc490614bbe565b80601f0160208091040260200160405190810160405280929190818152602001828054611bf090614bbe565b8015611c3d5780601f10611c1257610100808354040283529160200191611c3d565b820191906000526020600020905b815481529060010190602001808311611c2057829003601f168201915b5050505050905090565b611c4f612b2f565b73ffffffffffffffffffffffffffffffffffffffff168273ffffffffffffffffffffffffffffffffffffffff161415611cbd576040517f08c379a0000000000000000000000000000000000000000000000000000000008152600401611cb4906142f5565b60405180910390fd5b8060056000611cca612b2f565b73ffffffffffffffffffffffffffffffffffffffff1673ffffffffffffffffffffffffffffffffffffffff16815260200190815260200160002060008473ffffffffffffffffffffffffffffffffffffffff1673ffffffffffffffffffffffffffffffffffffffff16815260200190815260200160002060006101000a81548160ff0219169083151502179055508173ffffffffffffffffffffffffffffffffffffffff16611d77612b2f565b73ffffffffffffffffffffffffffffffffffffffff167f17307eab39ab6107e8899845ad3d59bd9653f200f220920489ca2b5937696c3183604051611dbc91906141c2565b60405180910390a35050565b611dd9611dd3612b2f565b83612bf0565b611e18576040517f08c379a0000000000000000000000000000000000000000000000000000000008152600401611e0f906144f5565b60405180910390fd5b611e24848484846131be565b50505050565b6060611e3582612ac3565b611e74576040517f08c379a0000000000000000000000000000000000000000000000000000000008152600401611e6b90614475565b60405180910390fd5b6000611e7e61321a565b90506000815111611e9e5760405180602001604052806000815250611ec9565b80611ea8846132ac565b604051602001611eb9929190614100565b6040516020818303038152906040525b915050919050565b600080600080600060088681548110611f13577f4e487b7100000000000000000000000000000000000000000000000000000000600052603260045260246000fd5b90600052602060002090600402019050600081600001549050600082600101549050600060088381548110611f71577f4e487b7100000000000000000000000000000000000000000000000000000000600052603260045260246000fd5b90600052602060002090600402019050600060088381548110611fbd577f4e487b7100000000000000000000000000000000000000000000000000000000600052603260045260246000fd5b90600052602060002090600402019050838383600201548360020154985098509850985050505050509193509193565b600960009054906101000a900473ffffffffffffffffffffffffffffffffffffffff1681565b3373ffffffffffffffffffffffffffffffffffffffff1661203383611520565b73ffffffffffffffffffffffffffffffffffffffff1614612089576040517f08c379a000000000000000000000000000000000000000000000000000000000815260040161208090614515565b60405180910390fd5b3373ffffffffffffffffffffffffffffffffffffffff166120a982611520565b73ffffffffffffffffffffffffffffffffffffffff16146120ff576040517f08c379a00000000000000000000000000000000000000000000000000000000081526004016120f690614375565b60405180910390fd5b60006008838154811061213b577f4e487b7100000000000000000000000000000000000000000000000000000000600052603260045260246000fd5b90600052602060002090600402019050600060088381548110612187577f4e487b7100000000000000000000000000000000000000000000000000000000600052603260045260246000fd5b9060005260206000209060040201905060008260030160089054906101000a900460ff1660ff16905060008360030160089054906101000a900460ff1660ff169050600982111580156121db575060098111155b61221a576040517f08c379a0000000000000000000000000000000000000000000000000000000008152600401612211906144d5565b60405180910390fd5b60008460000154905060008560010154905060008560000154905060008660010154905060008414612296578184141580156122565750808414155b612295576040517f08c379a000000000000000000000000000000000000000000000000000000000815260040161228c90614355565b60405180910390fd5b5b600083146122ee578083141580156122ae5750818314155b6122ed576040517f08c379a00000000000000000000000000000000000000000000000000000000081526004016122e490614555565b60405180910390fd5b5b8884141580156122fe5750888314155b61233d576040517f08c379a0000000000000000000000000000000000000000000000000000000008152600401612334906142b5565b60405180910390fd5b89821415801561234d5750898114155b61238c576040517f08c379a000000000000000000000000000000000000000000000000000000000815260040161238390614235565b60405180910390fd5b6000806000806000881480156123a25750600087145b156123b45760009350600091506123ed565b600d5493508960026123c691906148e1565b8a60036123d391906148e1565b600e546123e091906149ff565b6123ea919061485d565b91505b6000861480156123fd5750600085145b1561240f576000925060009050612448565b600d54925088600261242191906148e1565b89600361242e91906148e1565b600e5461243b91906149ff565b612445919061485d565b90505b600a60009054906101000a900473ffffffffffffffffffffffffffffffffffffffff1673ffffffffffffffffffffffffffffffffffffffff166323b872dd33600c60009054906101000a900473ffffffffffffffffffffffffffffffffffffffff1686886124b691906147d0565b6040518463ffffffff1660e01b81526004016124d49392919061413f565b602060405180830381600087803b1580156124ee57600080fd5b505af1158015612502573d6000803e3d6000fd5b505050506040513d601f19601f8201168201806040525081019061252691906139df565b50600b60009054906101000a900473ffffffffffffffffffffffffffffffffffffffff1673ffffffffffffffffffffffffffffffffffffffff166323b872dd33600b60009054906101000a900473ffffffffffffffffffffffffffffffffffffffff16848661259591906147d0565b6040518463ffffffff1660e01b81526004016125b39392919061413f565b602060405180830381600087803b1580156125cd57600080fd5b505af11580156125e1573d6000803e3d6000fd5b505050506040513d601f19601f8201168201806040525081019061260591906139df565b50505050506000600880549050905061261e3382612f2a565b60006040518060a001604052808d81526020018c8152602001600081526020014267ffffffffffffffff168152602001600060ff168152509050600881908060018154018082558091505060019003906000526020600020906004020160009091909190915060008201518160000155602082015181600101556040820151816002015560608201518160030160006101000a81548167ffffffffffffffff021916908367ffffffffffffffff16021790555060808201518160030160086101000a81548160ff021916908360ff1602179055505050600960009054906101000a900473ffffffffffffffffffffffffffffffffffffffff1673ffffffffffffffffffffffffffffffffffffffff16639b5e1687838e8e6040518463ffffffff1660e01b8152600401612753939291906145b9565b602060405180830381600087803b15801561276d57600080fd5b505af1158015612781573d6000803e3d6000fd5b505050506040513d601f19601f820116820180604052508101906127a59190613aed565b506001886127b39190614826565b8a60030160086101000a81548160ff021916908360ff1602179055506001876127dc9190614826565b8960030160086101000a81548160ff021916908360ff160217905550817f9ca383290f66cf05e07fed022366cb0e56f67485387cbc0a5911e8c6fc8045538d8d60405161282a929190614590565b60405180910390a2505050505050505050505050565b600a60009054906101000a900473ffffffffffffffffffffffffffffffffffffffff1681565b6000600560008473ffffffffffffffffffffffffffffffffffffffff1673ffffffffffffffffffffffffffffffffffffffff16815260200190815260200160002060008373ffffffffffffffffffffffffffffffffffffffff1673ffffffffffffffffffffffffffffffffffffffff16815260200190815260200160002060009054906101000a900460ff16905092915050565b612902612b2f565b73ffffffffffffffffffffffffffffffffffffffff16612920611b8b565b73ffffffffffffffffffffffffffffffffffffffff1614612976576040517f08c379a000000000000000000000000000000000000000000000000000000000815260040161296d90614435565b60405180910390fd5b600073ffffffffffffffffffffffffffffffffffffffff168173ffffffffffffffffffffffffffffffffffffffff1614156129e6576040517f08c379a00000000000000000000000000000000000000000000000000000000081526004016129dd90614275565b60405180910390fd5b6129ef816130f8565b50565b60088181548110612a0257600080fd5b90600052602060002090600402016000915090508060000154908060010154908060020154908060030160009054906101000a900467ffffffffffffffff16908060030160089054906101000a900460ff16905085565b60007f01ffc9a7000000000000000000000000000000000000000000000000000000007bffffffffffffffffffffffffffffffffffffffffffffffffffffffff1916827bffffffffffffffffffffffffffffffffffffffffffffffffffffffff1916149050919050565b60008073ffffffffffffffffffffffffffffffffffffffff166002600084815260200190815260200160002060009054906101000a900473ffffffffffffffffffffffffffffffffffffffff1673ffffffffffffffffffffffffffffffffffffffff1614159050919050565b600033905090565b816004600083815260200190815260200160002060006101000a81548173ffffffffffffffffffffffffffffffffffffffff021916908373ffffffffffffffffffffffffffffffffffffffff160217905550808273ffffffffffffffffffffffffffffffffffffffff16612baa83611520565b73ffffffffffffffffffffffffffffffffffffffff167f8c5be1e5ebec7d5bd14f71427d1e84f3dd0314c0f7b2291e5b200ac8c7c3b92560405160405180910390a45050565b6000612bfb82612ac3565b612c3a576040517f08c379a0000000000000000000000000000000000000000000000000000000008152600401612c3190614315565b60405180910390fd5b6000612c4583611520565b90508073ffffffffffffffffffffffffffffffffffffffff168473ffffffffffffffffffffffffffffffffffffffff161480612cb457508373ffffffffffffffffffffffffffffffffffffffff16612c9c8461083f565b73ffffffffffffffffffffffffffffffffffffffff16145b80612cc55750612cc48185612866565b5b91505092915050565b8273ffffffffffffffffffffffffffffffffffffffff16612cee82611520565b73ffffffffffffffffffffffffffffffffffffffff1614612d44576040517f08c379a0000000000000000000000000000000000000000000000000000000008152600401612d3b90614455565b60405180910390fd5b600073ffffffffffffffffffffffffffffffffffffffff168273ffffffffffffffffffffffffffffffffffffffff161415612db4576040517f08c379a0000000000000000000000000000000000000000000000000000000008152600401612dab906142d5565b60405180910390fd5b612dbf838383613459565b612dca600082612b37565b6001600360008573ffffffffffffffffffffffffffffffffffffffff1673ffffffffffffffffffffffffffffffffffffffff1681526020019081526020016000206000828254612e1a9190614a59565b925050819055506001600360008473ffffffffffffffffffffffffffffffffffffffff1673ffffffffffffffffffffffffffffffffffffffff1681526020019081526020016000206000828254612e7191906147d0565b92505081905550816002600083815260200190815260200160002060006101000a81548173ffffffffffffffffffffffffffffffffffffffff021916908373ffffffffffffffffffffffffffffffffffffffff160217905550808273ffffffffffffffffffffffffffffffffffffffff168473ffffffffffffffffffffffffffffffffffffffff167fddf252ad1be2c89b69c2b068fc378daa952ba7f163c4a11628f55a4df523b3ef60405160405180910390a4505050565b600073ffffffffffffffffffffffffffffffffffffffff168273ffffffffffffffffffffffffffffffffffffffff161415612f9a576040517f08c379a0000000000000000000000000000000000000000000000000000000008152600401612f91906143d5565b60405180910390fd5b612fa381612ac3565b15612fe3576040517f08c379a0000000000000000000000000000000000000000000000000000000008152600401612fda90614295565b60405180910390fd5b612fef60008383613459565b6001600360008473ffffffffffffffffffffffffffffffffffffffff1673ffffffffffffffffffffffffffffffffffffffff168152602001908152602001600020600082825461303f91906147d0565b92505081905550816002600083815260200190815260200160002060006101000a81548173ffffffffffffffffffffffffffffffffffffffff021916908373ffffffffffffffffffffffffffffffffffffffff160217905550808273ffffffffffffffffffffffffffffffffffffffff16600073ffffffffffffffffffffffffffffffffffffffff167fddf252ad1be2c89b69c2b068fc378daa952ba7f163c4a11628f55a4df523b3ef60405160405180910390a45050565b6000600660009054906101000a900473ffffffffffffffffffffffffffffffffffffffff16905081600660006101000a81548173ffffffffffffffffffffffffffffffffffffffff021916908373ffffffffffffffffffffffffffffffffffffffff1602179055508173ffffffffffffffffffffffffffffffffffffffff168173ffffffffffffffffffffffffffffffffffffffff167f8be0079c531659141344cd1fd0a4f28419497f9722a3daafe3b4186f6b6457e060405160405180910390a35050565b6131c9848484612cce565b6131d58484848461345e565b613214576040517f08c379a000000000000000000000000000000000000000000000000000000000815260040161320b90614255565b60405180910390fd5b50505050565b60606007805461322990614bbe565b80601f016020809104026020016040519081016040528092919081815260200182805461325590614bbe565b80156132a25780601f10613277576101008083540402835291602001916132a2565b820191906000526020600020905b81548152906001019060200180831161328557829003601f168201915b5050505050905090565b606060008214156132f4576040518060400160405280600181526020017f30000000000000000000000000000000000000000000000000000000000000008152509050613454565b600082905060005b6000821461332657808061330f90614c21565b915050600a8261331f919061485d565b91506132fc565b60008167ffffffffffffffff811115613368577f4e487b7100000000000000000000000000000000000000000000000000000000600052604160045260246000fd5b6040519080825280601f01601f19166020018201604052801561339a5781602001600182028036833780820191505090505b5090505b6000851461344d576001826133b39190614a59565b9150600a856133c29190614c6a565b60306133ce91906147d0565b60f81b81838151811061340a577f4e487b7100000000000000000000000000000000000000000000000000000000600052603260045260246000fd5b60200101907effffffffffffffffffffffffffffffffffffffffffffffffffffffffffffff1916908160001a905350600a85613446919061485d565b945061339e565b8093505050505b919050565b505050565b600061347f8473ffffffffffffffffffffffffffffffffffffffff166135f5565b156135e8578373ffffffffffffffffffffffffffffffffffffffff1663150b7a026134a8612b2f565b8786866040518563ffffffff1660e01b81526004016134ca9493929190614176565b602060405180830381600087803b1580156134e457600080fd5b505af192505050801561351557506040513d601f19601f820116820180604052508101906135129190613a31565b60015b613598573d8060008114613545576040519150601f19603f3d011682016040523d82523d6000602084013e61354a565b606091505b50600081511415613590576040517f08c379a000000000000000000000000000000000000000000000000000000000815260040161358790614255565b60405180910390fd5b805181602001fd5b63150b7a0260e01b7bffffffffffffffffffffffffffffffffffffffffffffffffffffffff1916817bffffffffffffffffffffffffffffffffffffffffffffffffffffffff1916149150506135ed565b600190505b949350505050565b600080823b905060008111915050919050565b82805461361490614bbe565b90600052602060002090601f016020900481019282613636576000855561367d565b82601f1061364f57805160ff191683800117855561367d565b8280016001018555821561367d579182015b8281111561367c578251825591602001919060010190613661565b5b50905061368a919061368e565b5090565b5b808211156136a757600081600090555060010161368f565b5090565b60006136be6136b98461472b565b614706565b9050828152602081018484840111156136d657600080fd5b6136e1848285614b7c565b509392505050565b60006136fc6136f78461475c565b614706565b90508281526020810184848401111561371457600080fd5b61371f848285614b7c565b509392505050565b60008135905061373681615367565b92915050565b60008135905061374b8161537e565b92915050565b6000815190506137608161537e565b92915050565b60008135905061377581615395565b92915050565b60008151905061378a81615395565b92915050565b600082601f8301126137a157600080fd5b81356137b18482602086016136ab565b91505092915050565b6000813590506137c9816153ac565b92915050565b600082601f8301126137e057600080fd5b81356137f08482602086016136e9565b91505092915050565b600081359050613808816153c3565b92915050565b60008151905061381d816153c3565b92915050565b600081519050613832816153da565b92915050565b60006020828403121561384a57600080fd5b600061385884828501613727565b91505092915050565b6000806040838503121561387457600080fd5b600061388285828601613727565b925050602061389385828601613727565b9150509250929050565b6000806000606084860312156138b257600080fd5b60006138c086828701613727565b93505060206138d186828701613727565b92505060406138e2868287016137f9565b9150509250925092565b6000806000806080858703121561390257600080fd5b600061391087828801613727565b945050602061392187828801613727565b9350506040613932878288016137f9565b925050606085013567ffffffffffffffff81111561394f57600080fd5b61395b87828801613790565b91505092959194509250565b6000806040838503121561397a57600080fd5b600061398885828601613727565b92505060206139998582860161373c565b9150509250929050565b600080604083850312156139b657600080fd5b60006139c485828601613727565b92505060206139d5858286016137f9565b9150509250929050565b6000602082840312156139f157600080fd5b60006139ff84828501613751565b91505092915050565b600060208284031215613a1a57600080fd5b6000613a2884828501613766565b91505092915050565b600060208284031215613a4357600080fd5b6000613a518482850161377b565b91505092915050565b600060208284031215613a6c57600080fd5b6000613a7a848285016137ba565b91505092915050565b600060208284031215613a9557600080fd5b600082013567ffffffffffffffff811115613aaf57600080fd5b613abb848285016137cf565b91505092915050565b600060208284031215613ad657600080fd5b6000613ae4848285016137f9565b91505092915050565b600060208284031215613aff57600080fd5b6000613b0d8482850161380e565b91505092915050565b60008060408385031215613b2957600080fd5b6000613b37858286016137f9565b9250506020613b48858286016137f9565b9150509250929050565b60008060408385031215613b6557600080fd5b6000613b7385828601613823565b9250506020613b8485828601613823565b9150509250929050565b600080600060608486031215613ba357600080fd5b6000613bb186828701613823565b9350506020613bc286828701613823565b9250506040613bd386828701613823565b9150509250925092565b60008060008060008060c08789031215613bf657600080fd5b6000613c0489828a01613823565b9650506020613c1589828a01613823565b9550506040613c2689828a01613823565b9450506060613c3789828a01613823565b9350506080613c4889828a01613823565b92505060a0613c5989828a01613823565b9150509295509295509295565b613c6f81614a8d565b82525050565b613c7e81614a9f565b82525050565b6000613c8f8261478d565b613c9981856147a3565b9350613ca9818560208601614b8b565b613cb281614d57565b840191505092915050565b613cc681614b34565b82525050565b613cd581614b58565b82525050565b6000613ce682614798565b613cf081856147b4565b9350613d00818560208601614b8b565b613d0981614d57565b840191505092915050565b6000613d1f82614798565b613d2981856147c5565b9350613d39818560208601614b8b565b80840191505092915050565b6000613d526009836147b4565b9150613d5d82614d75565b602082019050919050565b6000613d756032836147b4565b9150613d8082614d9e565b604082019050919050565b6000613d986026836147b4565b9150613da382614ded565b604082019050919050565b6000613dbb601c836147b4565b9150613dc682614e3c565b602082019050919050565b6000613dde6009836147b4565b9150613de982614e65565b602082019050919050565b6000613e016024836147b4565b9150613e0c82614e8e565b604082019050919050565b6000613e246019836147b4565b9150613e2f82614edd565b602082019050919050565b6000613e47602c836147b4565b9150613e5282614f06565b604082019050919050565b6000613e6a6038836147b4565b9150613e7582614f55565b604082019050919050565b6000613e8d6008836147b4565b9150613e9882614fa4565b602082019050919050565b6000613eb0600f836147b4565b9150613ebb82614fcd565b602082019050919050565b6000613ed3602a836147b4565b9150613ede82614ff6565b604082019050919050565b6000613ef66029836147b4565b9150613f0182615045565b604082019050919050565b6000613f196020836147b4565b9150613f2482615094565b602082019050919050565b6000613f3c6005836147b4565b9150613f47826150bd565b602082019050919050565b6000613f5f602c836147b4565b9150613f6a826150e6565b604082019050919050565b6000613f826020836147b4565b9150613f8d82615135565b602082019050919050565b6000613fa56029836147b4565b9150613fb08261515e565b604082019050919050565b6000613fc8602f836147b4565b9150613fd3826151ad565b604082019050919050565b6000613feb6021836147b4565b9150613ff6826151fc565b604082019050919050565b600061400e6007836147b4565b91506140198261524b565b602082019050919050565b6000614031600e836147b4565b915061403c82615274565b602082019050919050565b60006140546031836147b4565b915061405f8261529d565b604082019050919050565b6000614077600f836147b4565b9150614082826152ec565b602082019050919050565b600061409a6009836147b4565b91506140a582615315565b602082019050919050565b60006140bd6008836147b4565b91506140c88261533e565b602082019050919050565b6140dc81614b09565b82525050565b6140eb81614b13565b82525050565b6140fa81614b27565b82525050565b600061410c8285613d14565b91506141188284613d14565b91508190509392505050565b60006020820190506141396000830184613c66565b92915050565b60006060820190506141546000830186613c66565b6141616020830185613c66565b61416e60408301846140d3565b949350505050565b600060808201905061418b6000830187613c66565b6141986020830186613c66565b6141a560408301856140d3565b81810360608301526141b78184613c84565b905095945050505050565b60006020820190506141d76000830184613c75565b92915050565b60006020820190506141f26000830184613cbd565b92915050565b600060208201905061420d6000830184613ccc565b92915050565b6000602082019050818103600083015261422d8184613cdb565b905092915050565b6000602082019050818103600083015261424e81613d45565b9050919050565b6000602082019050818103600083015261426e81613d68565b9050919050565b6000602082019050818103600083015261428e81613d8b565b9050919050565b600060208201905081810360008301526142ae81613dae565b9050919050565b600060208201905081810360008301526142ce81613dd1565b9050919050565b600060208201905081810360008301526142ee81613df4565b9050919050565b6000602082019050818103600083015261430e81613e17565b9050919050565b6000602082019050818103600083015261432e81613e3a565b9050919050565b6000602082019050818103600083015261434e81613e5d565b9050919050565b6000602082019050818103600083015261436e81613e80565b9050919050565b6000602082019050818103600083015261438e81613ea3565b9050919050565b600060208201905081810360008301526143ae81613ec6565b9050919050565b600060208201905081810360008301526143ce81613ee9565b9050919050565b600060208201905081810360008301526143ee81613f0c565b9050919050565b6000602082019050818103600083015261440e81613f2f565b9050919050565b6000602082019050818103600083015261442e81613f52565b9050919050565b6000602082019050818103600083015261444e81613f75565b9050919050565b6000602082019050818103600083015261446e81613f98565b9050919050565b6000602082019050818103600083015261448e81613fbb565b9050919050565b600060208201905081810360008301526144ae81613fde565b9050919050565b600060208201905081810360008301526144ce81614001565b9050919050565b600060208201905081810360008301526144ee81614024565b9050919050565b6000602082019050818103600083015261450e81614047565b9050919050565b6000602082019050818103600083015261452e8161406a565b9050919050565b6000602082019050818103600083015261454e8161408d565b9050919050565b6000602082019050818103600083015261456e816140b0565b9050919050565b600060208201905061458a60008301846140d3565b92915050565b60006040820190506145a560008301856140d3565b6145b260208301846140d3565b9392505050565b60006060820190506145ce60008301866140d3565b6145db60208301856140d3565b6145e860408301846140d3565b949350505050565b600060808201905061460560008301876140d3565b61461260208301866140d3565b61461f60408301856140d3565b61462c60608301846140d3565b95945050505050565b600060a08201905061464a60008301886140d3565b61465760208301876140d3565b61466460408301866140d3565b61467160608301856140e2565b61467e60808301846140f1565b9695505050505050565b60006101008201905061469e600083018b6140f1565b6146ab602083018a6140f1565b6146b860408301896140f1565b6146c560608301886140f1565b6146d260808301876140f1565b6146df60a08301866140f1565b6146ec60c08301856140f1565b6146f960e08301846140f1565b9998505050505050505050565b6000614710614721565b905061471c8282614bf0565b919050565b6000604051905090565b600067ffffffffffffffff82111561474657614745614d28565b5b61474f82614d57565b9050602081019050919050565b600067ffffffffffffffff82111561477757614776614d28565b5b61478082614d57565b9050602081019050919050565b600081519050919050565b600081519050919050565b600082825260208201905092915050565b600082825260208201905092915050565b600081905092915050565b60006147db82614b09565b91506147e683614b09565b9250827fffffffffffffffffffffffffffffffffffffffffffffffffffffffffffffffff0382111561481b5761481a614c9b565b5b828201905092915050565b600061483182614b27565b915061483c83614b27565b92508260ff0382111561485257614851614c9b565b5b828201905092915050565b600061486882614b09565b915061487383614b09565b92508261488357614882614cca565b5b828204905092915050565b6000808291508390505b60018511156148d8578086048111156148b4576148b3614c9b565b5b60018516156148c35780820291505b80810290506148d185614d68565b9450614898565b94509492505050565b60006148ec82614b09565b91506148f783614b09565b92506149247fffffffffffffffffffffffffffffffffffffffffffffffffffffffffffffffff848461492c565b905092915050565b60008261493c57600190506149f8565b8161494a57600090506149f8565b8160018114614960576002811461496a57614999565b60019150506149f8565b60ff84111561497c5761497b614c9b565b5b8360020a91508482111561499357614992614c9b565b5b506149f8565b5060208310610133831016604e8410600b84101617156149ce5782820a9050838111156149c9576149c8614c9b565b5b6149f8565b6149db848484600161488e565b925090508184048111156149f2576149f1614c9b565b5b81810290505b9392505050565b6000614a0a82614b09565b9150614a1583614b09565b9250817fffffffffffffffffffffffffffffffffffffffffffffffffffffffffffffffff0483118215151615614a4e57614a4d614c9b565b5b828202905092915050565b6000614a6482614b09565b9150614a6f83614b09565b925082821015614a8257614a81614c9b565b5b828203905092915050565b6000614a9882614ae9565b9050919050565b60008115159050919050565b60007fffffffff0000000000000000000000000000000000000000000000000000000082169050919050565b6000614ae282614a8d565b9050919050565b600073ffffffffffffffffffffffffffffffffffffffff82169050919050565b6000819050919050565b600067ffffffffffffffff82169050919050565b600060ff82169050919050565b6000614b3f82614b46565b9050919050565b6000614b5182614ae9565b9050919050565b6000614b6382614b6a565b9050919050565b6000614b7582614ae9565b9050919050565b82818337600083830152505050565b60005b83811015614ba9578082015181840152602081019050614b8e565b83811115614bb8576000848401525b50505050565b60006002820490506001821680614bd657607f821691505b60208210811415614bea57614be9614cf9565b5b50919050565b614bf982614d57565b810181811067ffffffffffffffff82111715614c1857614c17614d28565b5b80604052505050565b6000614c2c82614b09565b91507fffffffffffffffffffffffffffffffffffffffffffffffffffffffffffffffff821415614c5f57614c5e614c9b565b5b600182019050919050565b6000614c7582614b09565b9150614c8083614b09565b925082614c9057614c8f614cca565b5b828206905092915050565b7f4e487b7100000000000000000000000000000000000000000000000000000000600052601160045260246000fd5b7f4e487b7100000000000000000000000000000000000000000000000000000000600052601260045260246000fd5b7f4e487b7100000000000000000000000000000000000000000000000000000000600052602260045260246000fd5b7f4e487b7100000000000000000000000000000000000000000000000000000000600052604160045260246000fd5b6000601f19601f8301169050919050565b60008160011c9050919050565b7f4348494c4452454e320000000000000000000000000000000000000000000000600082015250565b7f4552433732313a207472616e7366657220746f206e6f6e20455243373231526560008201527f63656976657220696d706c656d656e7465720000000000000000000000000000602082015250565b7f4f776e61626c653a206e6577206f776e657220697320746865207a65726f206160008201527f6464726573730000000000000000000000000000000000000000000000000000602082015250565b7f4552433732313a20746f6b656e20616c7265616479206d696e74656400000000600082015250565b7f4348494c4452454e310000000000000000000000000000000000000000000000600082015250565b7f4552433732313a207472616e7366657220746f20746865207a65726f2061646460008201527f7265737300000000000000000000000000000000000000000000000000000000602082015250565b7f4552433732313a20617070726f766520746f2063616c6c657200000000000000600082015250565b7f4552433732313a206f70657261746f7220717565727920666f72206e6f6e657860008201527f697374656e7420746f6b656e0000000000000000000000000000000000000000602082015250565b7f4552433732313a20617070726f76652063616c6c6572206973206e6f74206f7760008201527f6e6572206e6f7220617070726f76656420666f7220616c6c0000000000000000602082015250565b7f5349424c494e4731000000000000000000000000000000000000000000000000600082015250565b7f4e4f54204d4f4d4d59204f574e45520000000000000000000000000000000000600082015250565b7f4552433732313a2062616c616e636520717565727920666f7220746865207a6560008201527f726f206164647265737300000000000000000000000000000000000000000000602082015250565b7f4552433732313a206f776e657220717565727920666f72206e6f6e657869737460008201527f656e7420746f6b656e0000000000000000000000000000000000000000000000602082015250565b7f4552433732313a206d696e7420746f20746865207a65726f2061646472657373600082015250565b7f4541524c59000000000000000000000000000000000000000000000000000000600082015250565b7f4552433732313a20617070726f76656420717565727920666f72206e6f6e657860008201527f697374656e7420746f6b656e0000000000000000000000000000000000000000602082015250565b7f4f776e61626c653a2063616c6c6572206973206e6f7420746865206f776e6572600082015250565b7f4552433732313a207472616e73666572206f6620746f6b656e2074686174206960008201527f73206e6f74206f776e0000000000000000000000000000000000000000000000602082015250565b7f4552433732314d657461646174613a2055524920717565727920666f72206e6f60008201527f6e6578697374656e7420746f6b656e0000000000000000000000000000000000602082015250565b7f4552433732313a20617070726f76616c20746f2063757272656e74206f776e6560008201527f7200000000000000000000000000000000000000000000000000000000000000602082015250565b7f4841544348454400000000000000000000000000000000000000000000000000600082015250565b7f4252454544494e47204c494d4954000000000000000000000000000000000000600082015250565b7f4552433732313a207472616e736665722063616c6c6572206973206e6f74206f60008201527f776e6572206e6f7220617070726f766564000000000000000000000000000000602082015250565b7f4e4f54204441444459204f574e45520000000000000000000000000000000000600082015250565b7f4e4f54204f574e45520000000000000000000000000000000000000000000000600082015250565b7f5349424c494e4732000000000000000000000000000000000000000000000000600082015250565b61537081614a8d565b811461537b57600080fd5b50565b61538781614a9f565b811461539257600080fd5b50565b61539e81614aab565b81146153a957600080fd5b50565b6153b581614ad7565b81146153c057600080fd5b50565b6153cc81614b09565b81146153d757600080fd5b50565b6153e381614b27565b81146153ee57600080fd5b5056fea26469706673582212206a730e56d4df403976be4b080a9f773a225aaa822c6336f25a8a4a74fb3a419564736f6c63430008030033",
    "immutableReferences": {},
    "source": "pragma solidity 0.8.3;\\n\\nimport \"@openzeppelin/contracts/token/ERC721/ERC721.sol\";\\nimport \"@openzeppelin/contracts/token/ERC20/IERC20.sol\";\\nimport \"@openzeppelin/contracts/access/Ownable.sol\";\\nimport \"@openzeppelin/contracts/utils/Strings.sol\";\\nimport \"./IGenCore.sol\";\\n\\ncontract Crabada is ERC721, Ownable {\\n    using Strings for uint256;\\n\\n    string private baseURI;\\n\\n    CrabadaInfo[] public crabadaInfo;\\n\\n    IGenCore public genCore;\\n    IERC20 public cra;\\n    IERC20 public tus;\\n    address public feeAddress;\\n\\n    uint256 public craFee;\\n    uint256 public tusFee;\\n\\n    uint256 public hatchDuration;\\n    uint256 public constant breedingLimit = 9;\\n\\n    struct CrabadaInfo {\\n        uint256 daddyId;\\n        uint256 mommyId;\\n        uint256 dna;\\n        uint64 birthday;\\n        uint8 breedingCount;\\n    }\\n\\n    event Hatch(uint256 indexed tokenId, uint256 dna);\\n    event Breed(uint256 indexed tokenId, uint256 daddyId, uint256 mommyId);\\n    event SetBreedingFee(uint256 craFee, uint256 tusFee);\\n    event SetHatchDuration(uint256 inSecond);\\n\\n    constructor (\\n        string memory baseURI_,\\n        IERC20 cra_,\\n        IERC20 tus_,\\n        address feeAddress_,\\n        uint256 craFee_,\\n        uint256 tusFee_\\n\\n    ) ERC721(\"Crabada\", \"Crabada\") {\\n        baseURI = baseURI_;\\n        cra = cra_;\\n        tus = tus_;\\n        feeAddress = feeAddress_;\\n\\n        craFee = craFee_;\\n        tusFee = tusFee_;\\n\\n        // Genesis crabada\\n        CrabadaInfo memory g = CrabadaInfo(0,0,0xFFFFFFFFFFFFFFFFFFFFFFFFFFFFFFFFF,0,0);\\n        crabadaInfo.push(g);\\n        _mint(msg.sender, 0);\\n    }\\n\\n    function mint(address account, uint256 dna) onlyOwner() external {\\n        uint256 tokenId = crabadaInfo.length;\\n        _mint(account, tokenId);\\n        CrabadaInfo memory ci = CrabadaInfo(0, 0, dna, uint64(block.timestamp), 0);\\n        crabadaInfo.push(ci);\\n\\n        emit Hatch(tokenId, dna);\\n    }\\n\\n    function _baseURI() internal view override returns (string memory){\\n        return baseURI;\\n    }\\n\\n    function breed(uint256 daddyId, uint256 mommyId) external {\\n        require(ownerOf(daddyId) ==  msg.sender, \"NOT DADDY OWNER\");\\n        require(ownerOf(mommyId) ==  msg.sender, \"NOT MOMMY OWNER\");\\n        CrabadaInfo storage dad = crabadaInfo[daddyId];\\n        CrabadaInfo storage mom = crabadaInfo[mommyId];\\n\\n        uint256 dadBreedingCount = dad.breedingCount;\\n        uint256 momBreedingCount = dad.breedingCount;\\n        require(dadBreedingCount <= breedingLimit && momBreedingCount <= breedingLimit, \"BREEDING LIMIT\");\\n\\n        // Checking family\\n        // Not sibling\\n        uint256 ddId = dad.daddyId;\\n        uint256 dmId = dad.mommyId;\\n        uint256 mdId = mom.daddyId;\\n        uint256 mmId = mom.mommyId;\\n        if (ddId != 0) {\\n            require((ddId != mdId && ddId != mmId), \"SIBLING1\");\\n        }\\n        if (dmId != 0) {\\n            require((dmId != mmId && dmId != mdId), \"SIBLING2\");\\n        }\\n        // Not children\\n        require(ddId != mommyId && dmId != mommyId, \"CHILDREN1\");\\n        require(mdId != daddyId && mmId != daddyId, \"CHILDREN2\");\\n\\n        // Calculate fee\\n    {\\n        uint256 craFeeDad;\\n        uint256 craFeeMom;\\n        uint256 tusFeeDad;\\n        uint256 tusFeeMom;\\n        if (ddId == 0 && dmId == 0) {\\n            craFeeDad = 0;\\n            tusFeeDad = 0;\\n        } else {\\n            craFeeDad = craFee;\\n            tusFeeDad = tusFee * 3 ** dadBreedingCount / 2** dadBreedingCount;\\n        }\\n\\n        if (mdId == 0 && mmId == 0) {\\n            craFeeMom = 0;\\n            tusFeeMom = 0;\\n        } else {\\n            craFeeMom = craFee;\\n            tusFeeMom = tusFee * 3 ** momBreedingCount / 2** momBreedingCount;\\n        }\\n\\n        cra.transferFrom(msg.sender, feeAddress, craFeeDad + craFeeMom);\\n        tus.transferFrom(msg.sender, address(tus), tusFeeDad + tusFeeMom); // burn\\n    }\\n        uint256 tokenId = crabadaInfo.length;\\n        _mint(msg.sender, tokenId);\\n        \\n        CrabadaInfo memory ci = CrabadaInfo(daddyId, mommyId, 0, uint64(block.timestamp), 0);\\n        crabadaInfo.push(ci);\\n        \\n        genCore.breed(tokenId, daddyId, mommyId);\\n\\n        dad.breedingCount = uint8(dadBreedingCount) + 1;\\n        mom.breedingCount = uint8(momBreedingCount) + 1;\\n\\n        emit Breed(tokenId, daddyId, mommyId);\\n    }\\n\\n    function hatchOut(uint256 tokenId) external {\\n        require(ownerOf(tokenId) ==  msg.sender, \"NOT OWNER\");\\n\\n        CrabadaInfo storage ci = crabadaInfo[tokenId];\\n        require(block.timestamp - ci.birthday >= hatchDuration, \"EARLY\");\\n        require(ci.dna == 0, \"HATCHED\");\\n        \\n        uint256 dna = genCore.hatchOut(tokenId);\\n        ci.dna = dna;\\n        emit Hatch(tokenId, dna);\\n    }\\n\\n    function getParentsInfo(uint256 tokenId) public returns(uint256, uint256, uint256, uint256) {\\n        CrabadaInfo storage crab = crabadaInfo[tokenId];\\n        uint256 dadId= crab.daddyId;\\n        uint256 momId= crab.mommyId;\\n\\n        CrabadaInfo storage dad = crabadaInfo[dadId];\\n        CrabadaInfo storage mom = crabadaInfo[momId];\\n\\n        return (dadId, momId, dad.dna, mom.dna);\\n    }\\n\\n\\n    /////////////////////////////////////////////////////////////\\n    // Operator function\\n    /////////////////////////////////////////////////////////////\\n    function setGenCore(IGenCore _genCore) external onlyOwner() {\\n        genCore = _genCore;\\n    }\\n\\n    function setBreedingFee(uint256 _craFee, uint256 _tusFee) external onlyOwner() {\\n        craFee = _craFee;\\n        tusFee = _tusFee;\\n\\n        emit SetBreedingFee(_craFee, _tusFee);\\n    }\\n\\n    function setHatchDuration(uint256 inSeconds) external onlyOwner() {\\n        hatchDuration = inSeconds;\\n        emit SetHatchDuration(inSeconds);\\n    }\\n\\n    function changeBaseURI(string memory baseURI_) onlyOwner() external {\\n        baseURI = baseURI_;\\n    }\\n\\n    /////////////////////////////////////////////////////////////\\n    // Utility functions\\n    /////////////////////////////////////////////////////////////\\n    function getCrabadaAttributes(uint256 tokenId) external returns(\\n        uint8 attr0,\\n        uint8 attr1,\\n        uint8 attr2,\\n        uint8 attr3,\\n        uint8 attr4,\\n        uint8 attr5,\\n        uint8 attr6,\\n        uint8 attr7\\n    ) {\\n        uint256 dna = crabadaInfo[tokenId].dna;\\n        (attr0,,) = genCore.extractGen0(dna);\\n        (attr1,,) = genCore.extractGen1(dna);\\n        (attr2,,) = genCore.extractGen2(dna);\\n        (attr3,,) = genCore.extractGen3(dna);\\n        (attr4,,) = genCore.extractGen4(dna);\\n        (attr5,,) = genCore.extractGen5(dna);\\n        (attr6,,) = genCore.extractGen6(dna);\\n        (attr7,,) = genCore.extractGen7(dna);\\n        \\n    }\\n\\n    function getCrabadaProperties(uint256 tokenId) external returns(\\n        uint8 crabaType,\\n        uint8 crabaClass,\\n        uint8 rare0,\\n        uint8 rare1,\\n        uint8 rare2,\\n        uint8 rare3,\\n        uint8 rare4,\\n        uint8 rare5\\n    ) {\\n        uint256 dna = crabadaInfo[tokenId].dna;\\n        (crabaType,crabaClass) = genCore.extractType(dna);\\n        (rare0, rare1, rare2, rare3, rare4, rare5) = genCore.extractReserve(dna);\\n    }\\n}",
    "sourcePath": "/home/phu/code/crabada/crabada-contracts/contracts/Crabada.sol",
    "compiler": {
        "name": "solc",
        "version": "0.8.3+commit.8d00100c.Emscripten.clang"
    },
    "schemaVersion": "3.4.1",
    "updatedAt": "2021-07-30T03:01:04.912Z",
    "devdoc": {
        "kind": "dev",
        "methods": {
            "approve(address,uint256)": {
                "details": "See {IERC721-approve}."
            },
            "balanceOf(address)": {
                "details": "See {IERC721-balanceOf}."
            },
            "getApproved(uint256)": {
                "details": "See {IERC721-getApproved}."
            },
            "isApprovedForAll(address,address)": {
                "details": "See {IERC721-isApprovedForAll}."
            },
            "name()": {
                "details": "See {IERC721Metadata-name}."
            },
            "owner()": {
                "details": "Returns the address of the current owner."
            },
            "ownerOf(uint256)": {
                "details": "See {IERC721-ownerOf}."
            },
            "renounceOwnership()": {
                "details": "Leaves the contract without owner. It will not be possible to call `onlyOwner` functions anymore. Can only be called by the current owner. NOTE: Renouncing ownership will leave the contract without an owner, thereby removing any functionality that is only available to the owner."
            },
            "safeTransferFrom(address,address,uint256)": {
                "details": "See {IERC721-safeTransferFrom}."
            },
            "safeTransferFrom(address,address,uint256,bytes)": {
                "details": "See {IERC721-safeTransferFrom}."
            },
            "setApprovalForAll(address,bool)": {
                "details": "See {IERC721-setApprovalForAll}."
            },
            "supportsInterface(bytes4)": {
                "details": "See {IERC165-supportsInterface}."
            },
            "symbol()": {
                "details": "See {IERC721Metadata-symbol}."
            },
            "tokenURI(uint256)": {
                "details": "See {IERC721Metadata-tokenURI}."
            },
            "transferFrom(address,address,uint256)": {
                "details": "See {IERC721-transferFrom}."
            },
            "transferOwnership(address)": {
                "details": "Transfers ownership of the contract to a new account (`newOwner`). Can only be called by the current owner."
            }
        },
        "version": 1
    },
    "userdoc": {
        "kind": "user",
        "methods": {},
        "version": 1
    }
}