{
    "contractName": "MarketPlace",
    "abi": [
        {
            "inputs": [
                {
                    "internalType": "contract IERC20",
                    "name": "token",
                    "type": "address"
                },
                {
                    "internalType": "contract IERC721",
                    "name": "card",
                    "type": "address"
                },
                {
                    "internalType": "uint256",
                    "name": "feePercent",
                    "type": "uint256"
                },
                {
                    "internalType": "address",
                    "name": "feeAddr",
                    "type": "address"
                }
            ],
            "stateMutability": "nonpayable",
            "type": "constructor"
        },
        {
            "anonymous": false,
            "inputs": [
                {
                    "indexed": true,
                    "internalType": "uint256",
                    "name": "orderId",
                    "type": "uint256"
                },
                {
                    "indexed": true,
                    "internalType": "address",
                    "name": "buyer",
                    "type": "address"
                },
                {
                    "indexed": true,
                    "internalType": "address",
                    "name": "seller",
                    "type": "address"
                },
                {
                    "indexed": false,
                    "internalType": "uint256",
                    "name": "cardId",
                    "type": "uint256"
                },
                {
                    "indexed": false,
                    "internalType": "uint256",
                    "name": "cardPrice",
                    "type": "uint256"
                }
            ],
            "name": "BuyCard",
            "type": "event"
        },
        {
            "anonymous": false,
            "inputs": [
                {
                    "indexed": false,
                    "internalType": "uint256",
                    "name": "orderId",
                    "type": "uint256"
                }
            ],
            "name": "CancelSellOrder",
            "type": "event"
        },
        {
            "anonymous": false,
            "inputs": [
                {
                    "indexed": false,
                    "internalType": "uint256",
                    "name": "newFee",
                    "type": "uint256"
                }
            ],
            "name": "ChangeFee",
            "type": "event"
        },
        {
            "anonymous": false,
            "inputs": [
                {
                    "indexed": false,
                    "internalType": "address",
                    "name": "newAddress",
                    "type": "address"
                }
            ],
            "name": "ChangeFeeAddress",
            "type": "event"
        },
        {
            "anonymous": false,
            "inputs": [
                {
                    "indexed": true,
                    "internalType": "uint256",
                    "name": "orderId",
                    "type": "uint256"
                },
                {
                    "indexed": true,
                    "internalType": "address",
                    "name": "seller",
                    "type": "address"
                },
                {
                    "indexed": true,
                    "internalType": "uint256",
                    "name": "cardId",
                    "type": "uint256"
                },
                {
                    "indexed": false,
                    "internalType": "uint256",
                    "name": "cardPrice",
                    "type": "uint256"
                }
            ],
            "name": "MakeSellOrder",
            "type": "event"
        },
        {
            "anonymous": false,
            "inputs": [
                {
                    "indexed": true,
                    "internalType": "address",
                    "name": "previousOwner",
                    "type": "address"
                },
                {
                    "indexed": true,
                    "internalType": "address",
                    "name": "newOwner",
                    "type": "address"
                }
            ],
            "name": "OwnershipTransferred",
            "type": "event"
        },
        {
            "inputs": [],
            "name": "cardToken",
            "outputs": [
                {
                    "internalType": "contract IERC721",
                    "name": "",
                    "type": "address"
                }
            ],
            "stateMutability": "view",
            "type": "function"
        },
        {
            "inputs": [],
            "name": "currentOrderId",
            "outputs": [
                {
                    "internalType": "uint256",
                    "name": "",
                    "type": "uint256"
                }
            ],
            "stateMutability": "view",
            "type": "function"
        },
        {
            "inputs": [],
            "name": "feeAddress",
            "outputs": [
                {
                    "internalType": "address",
                    "name": "",
                    "type": "address"
                }
            ],
            "stateMutability": "view",
            "type": "function"
        },
        {
            "inputs": [],
            "name": "owner",
            "outputs": [
                {
                    "internalType": "address",
                    "name": "",
                    "type": "address"
                }
            ],
            "stateMutability": "view",
            "type": "function"
        },
        {
            "inputs": [],
            "name": "paymentToken",
            "outputs": [
                {
                    "internalType": "contract IERC20",
                    "name": "",
                    "type": "address"
                }
            ],
            "stateMutability": "view",
            "type": "function"
        },
        {
            "inputs": [],
            "name": "renounceOwnership",
            "outputs": [],
            "stateMutability": "nonpayable",
            "type": "function"
        },
        {
            "inputs": [
                {
                    "internalType": "uint256",
                    "name": "",
                    "type": "uint256"
                }
            ],
            "name": "sellOrders",
            "outputs": [
                {
                    "internalType": "address",
                    "name": "owner",
                    "type": "address"
                },
                {
                    "internalType": "uint256",
                    "name": "cardId",
                    "type": "uint256"
                },
                {
                    "internalType": "uint256",
                    "name": "cardPrice",
                    "type": "uint256"
                }
            ],
            "stateMutability": "view",
            "type": "function"
        },
        {
            "inputs": [],
            "name": "tradingFeePercent",
            "outputs": [
                {
                    "internalType": "uint256",
                    "name": "",
                    "type": "uint256"
                }
            ],
            "stateMutability": "view",
            "type": "function"
        },
        {
            "inputs": [
                {
                    "internalType": "address",
                    "name": "newOwner",
                    "type": "address"
                }
            ],
            "name": "transferOwnership",
            "outputs": [],
            "stateMutability": "nonpayable",
            "type": "function"
        },
        {
            "inputs": [
                {
                    "internalType": "uint256",
                    "name": "cardId",
                    "type": "uint256"
                },
                {
                    "internalType": "uint256",
                    "name": "cardPrice",
                    "type": "uint256"
                }
            ],
            "name": "makeSellOrder",
            "outputs": [],
            "stateMutability": "nonpayable",
            "type": "function"
        },
        {
            "inputs": [
                {
                    "internalType": "uint256",
                    "name": "orderId",
                    "type": "uint256"
                }
            ],
            "name": "cancelSellOrder",
            "outputs": [],
            "stateMutability": "nonpayable",
            "type": "function"
        },
        {
            "inputs": [
                {
                    "internalType": "uint256",
                    "name": "orderId",
                    "type": "uint256"
                }
            ],
            "name": "buyCard",
            "outputs": [],
            "stateMutability": "payable",
            "type": "function"
        },
        {
            "inputs": [
                {
                    "internalType": "address",
                    "name": "operator",
                    "type": "address"
                },
                {
                    "internalType": "address",
                    "name": "from",
                    "type": "address"
                },
                {
                    "internalType": "uint256",
                    "name": "tokenId",
                    "type": "uint256"
                },
                {
                    "internalType": "bytes",
                    "name": "data",
                    "type": "bytes"
                }
            ],
            "name": "onERC721Received",
            "outputs": [
                {
                    "internalType": "bytes4",
                    "name": "",
                    "type": "bytes4"
                }
            ],
            "stateMutability": "nonpayable",
            "type": "function"
        },
        {
            "inputs": [
                {
                    "internalType": "uint256",
                    "name": "newFee",
                    "type": "uint256"
                }
            ],
            "name": "setFee",
            "outputs": [],
            "stateMutability": "nonpayable",
            "type": "function"
        },
        {
            "inputs": [
                {
                    "internalType": "address",
                    "name": "newAddress",
                    "type": "address"
                }
            ],
            "name": "setFeeAddress",
            "outputs": [],
            "stateMutability": "nonpayable",
            "type": "function"
        }
    ],
    "bytecode": "0x60806040523480156200001157600080fd5b506040516200204b3803806200204b83398181016040528101906200003791906200025a565b620000576200004b6200013260201b60201c565b6200013a60201b60201c565b6001808190555083600260006101000a81548173ffffffffffffffffffffffffffffffffffffffff021916908373ffffffffffffffffffffffffffffffffffffffff16021790555082600360006101000a81548173ffffffffffffffffffffffffffffffffffffffff021916908373ffffffffffffffffffffffffffffffffffffffff1602179055508160068190555080600760006101000a81548173ffffffffffffffffffffffffffffffffffffffff021916908373ffffffffffffffffffffffffffffffffffffffff1602179055505050505062000394565b600033905090565b60008060009054906101000a900473ffffffffffffffffffffffffffffffffffffffff169050816000806101000a81548173ffffffffffffffffffffffffffffffffffffffff021916908373ffffffffffffffffffffffffffffffffffffffff1602179055508173ffffffffffffffffffffffffffffffffffffffff168173ffffffffffffffffffffffffffffffffffffffff167f8be0079c531659141344cd1fd0a4f28419497f9722a3daafe3b4186f6b6457e060405160405180910390a35050565b6000815190506200020f816200032c565b92915050565b600081519050620002268162000346565b92915050565b6000815190506200023d8162000360565b92915050565b60008151905062000254816200037a565b92915050565b600080600080608085870312156200027157600080fd5b6000620002818782880162000215565b945050602062000294878288016200022c565b9350506040620002a78782880162000243565b9250506060620002ba87828801620001fe565b91505092959194509250565b6000620002d38262000302565b9050919050565b6000620002e782620002c6565b9050919050565b6000620002fb82620002c6565b9050919050565b600073ffffffffffffffffffffffffffffffffffffffff82169050919050565b6000819050919050565b6200033781620002c6565b81146200034357600080fd5b50565b6200035181620002da565b81146200035d57600080fd5b50565b6200036b81620002ee565b81146200037757600080fd5b50565b620003858162000322565b81146200039157600080fd5b50565b611ca780620003a46000396000f3fe6080604052600436106100e85760003560e01c806369fe0e2d1161008a5780638da5cb5b116100595780638da5cb5b146102d0578063925931fc146102fb578063c70f5eaa14610326578063f2fde38b14610342576100e8565b806369fe0e2d1461023e578063715018a6146102675780637cf377871461027e5780638705fcd4146102a7576100e8565b80632a324027116100c65780632a3240271461017e5780633013ce29146101a957806341275358146101d45780634a8393f3146101ff576100e8565b8063150b7a02146100ed5780631a46e42a1461012a578063215eef2114610153575b600080fd5b3480156100f957600080fd5b50610114600480360381019061010f9190611292565b61036b565b604051610121919061169c565b60405180910390f35b34801561013657600080fd5b50610151600480360381019061014c919061133b565b610448565b005b34801561015f57600080fd5b5061016861060e565b60405161017591906116d2565b60405180910390f35b34801561018a57600080fd5b50610193610634565b6040516101a091906117cd565b60405180910390f35b3480156101b557600080fd5b506101be61063a565b6040516101cb91906116b7565b60405180910390f35b3480156101e057600080fd5b506101e9610660565b6040516101f6919061157d565b60405180910390f35b34801561020b57600080fd5b506102266004803603810190610221919061133b565b610686565b60405161023593929190611665565b60405180910390f35b34801561024a57600080fd5b506102656004803603810190610260919061133b565b6106d0565b005b34801561027357600080fd5b5061027c61078d565b005b34801561028a57600080fd5b506102a560048036038101906102a09190611364565b610815565b005b3480156102b357600080fd5b506102ce60048036038101906102c99190611269565b6108cb565b005b3480156102dc57600080fd5b506102e56109c2565b6040516102f2919061157d565b60405180910390f35b34801561030757600080fd5b506103106109eb565b60405161031d91906117cd565b60405180910390f35b610340600480360381019061033b919061133b565b6109f1565b005b34801561034e57600080fd5b5061036960048036038101906103649190611269565b610da9565b005b6000600360009054906101000a900473ffffffffffffffffffffffffffffffffffffffff1673ffffffffffffffffffffffffffffffffffffffff163373ffffffffffffffffffffffffffffffffffffffff16146103fd576040517f08c379a00000000000000000000000000000000000000000000000000000000081526004016103f49061178d565b60405180910390fd5b6000838381019061040e919061133b565b905061041b868683610ea1565b7f150b7a023d4804d13e8c85fb27262cb750cf6ba9f9dd3bb30d90f482ceeb4b1f91505095945050505050565b60006004600083815260200190815260200160002090503373ffffffffffffffffffffffffffffffffffffffff168160000160009054906101000a900473ffffffffffffffffffffffffffffffffffffffff1673ffffffffffffffffffffffffffffffffffffffff16146104f1576040517f08c379a00000000000000000000000000000000000000000000000000000000081526004016104e89061176d565b60405180910390fd5b600360009054906101000a900473ffffffffffffffffffffffffffffffffffffffff1673ffffffffffffffffffffffffffffffffffffffff1663b88d4fde303384600101546040518463ffffffff1660e01b81526004016105549392919061161b565b600060405180830381600087803b15801561056e57600080fd5b505af1158015610582573d6000803e3d6000fd5b5050505060046000838152602001908152602001600020600080820160006101000a81549073ffffffffffffffffffffffffffffffffffffffff02191690556001820160009055600282016000905550507f2fff7574e5d746527deed9fd275b7c3520bc2a591fe432efd3b6b1abadf3301c8260405161060291906117cd565b60405180910390a15050565b600360009054906101000a900473ffffffffffffffffffffffffffffffffffffffff1681565b60065481565b600260009054906101000a900473ffffffffffffffffffffffffffffffffffffffff1681565b600760009054906101000a900473ffffffffffffffffffffffffffffffffffffffff1681565b60046020528060005260406000206000915090508060000160009054906101000a900473ffffffffffffffffffffffffffffffffffffffff16908060010154908060020154905083565b6106d8610fba565b73ffffffffffffffffffffffffffffffffffffffff166106f66109c2565b73ffffffffffffffffffffffffffffffffffffffff161461074c576040517f08c379a00000000000000000000000000000000000000000000000000000000081526004016107439061172d565b60405180910390fd5b806006819055507ffba1d84f2e30311f1380f2355f294fbedd53264c2504378e2c4b2133dea166708160405161078291906117cd565b60405180910390a150565b610795610fba565b73ffffffffffffffffffffffffffffffffffffffff166107b36109c2565b73ffffffffffffffffffffffffffffffffffffffff1614610809576040517f08c379a00000000000000000000000000000000000000000000000000000000081526004016108009061172d565b60405180910390fd5b6108136000610fc2565b565b600360009054906101000a900473ffffffffffffffffffffffffffffffffffffffff1673ffffffffffffffffffffffffffffffffffffffff1663b88d4fde333085856040516020016108679190611562565b6040516020818303038152906040526040518563ffffffff1660e01b815260040161089594939291906115cf565b600060405180830381600087803b1580156108af57600080fd5b505af11580156108c3573d6000803e3d6000fd5b505050505050565b6108d3610fba565b73ffffffffffffffffffffffffffffffffffffffff166108f16109c2565b73ffffffffffffffffffffffffffffffffffffffff1614610947576040517f08c379a000000000000000000000000000000000000000000000000000000000815260040161093e9061172d565b60405180910390fd5b80600760006101000a81548173ffffffffffffffffffffffffffffffffffffffff021916908373ffffffffffffffffffffffffffffffffffffffff1602179055507f65e29051085f9b7dd780038722c09ab1443e323345b86bd862699a2881757f0c816040516109b7919061157d565b60405180910390a150565b60008060009054906101000a900473ffffffffffffffffffffffffffffffffffffffff16905090565b60055481565b60026001541415610a37576040517f08c379a0000000000000000000000000000000000000000000000000000000008152600401610a2e906117ad565b60405180910390fd5b6002600181905550600060046000838152602001908152602001600020905060008160000160009054906101000a900473ffffffffffffffffffffffffffffffffffffffff169050600082600101549050600073ffffffffffffffffffffffffffffffffffffffff168273ffffffffffffffffffffffffffffffffffffffff161415610af8576040517f08c379a0000000000000000000000000000000000000000000000000000000008152600401610aef9061174d565b60405180910390fd5b60008360000160006101000a81548173ffffffffffffffffffffffffffffffffffffffff021916908373ffffffffffffffffffffffffffffffffffffffff160217905550600360009054906101000a900473ffffffffffffffffffffffffffffffffffffffff1673ffffffffffffffffffffffffffffffffffffffff1663b88d4fde3033846040518463ffffffff1660e01b8152600401610b9b9392919061161b565b600060405180830381600087803b158015610bb557600080fd5b505af1158015610bc9573d6000803e3d6000fd5b505050506000836002015490506000819050600073ffffffffffffffffffffffffffffffffffffffff16600260009054906101000a900473ffffffffffffffffffffffffffffffffffffffff1673ffffffffffffffffffffffffffffffffffffffff161415610c7557813414610c74576040517f08c379a0000000000000000000000000000000000000000000000000000000008152600401610c6b9061170d565b60405180910390fd5b5b60006006541115610cdb57600061271060065484610c93919061186f565b610c9d919061183e565b90508083610cab91906118c9565b9150610cd9600760009054906101000a900473ffffffffffffffffffffffffffffffffffffffff1682611086565b505b610ce58482611086565b8373ffffffffffffffffffffffffffffffffffffffff163373ffffffffffffffffffffffffffffffffffffffff16877f4d3b1cf93e7676f80b7df86edb68fdf7be63c9964cc44c6b43b51c434b8ab7718686604051610d459291906117e8565b60405180910390a460046000878152602001908152602001600020600080820160006101000a81549073ffffffffffffffffffffffffffffffffffffffff021916905560018201600090556002820160009055505050505050506001808190555050565b610db1610fba565b73ffffffffffffffffffffffffffffffffffffffff16610dcf6109c2565b73ffffffffffffffffffffffffffffffffffffffff1614610e25576040517f08c379a0000000000000000000000000000000000000000000000000000000008152600401610e1c9061172d565b60405180910390fd5b600073ffffffffffffffffffffffffffffffffffffffff168173ffffffffffffffffffffffffffffffffffffffff161415610e95576040517f08c379a0000000000000000000000000000000000000000000000000000000008152600401610e8c906116ed565b60405180910390fd5b610e9e81610fc2565b50565b600060405180606001604052808573ffffffffffffffffffffffffffffffffffffffff1681526020018481526020018381525090508060046000600554815260200190815260200160002060008201518160000160006101000a81548173ffffffffffffffffffffffffffffffffffffffff021916908373ffffffffffffffffffffffffffffffffffffffff1602179055506020820151816001015560408201518160020155905050828473ffffffffffffffffffffffffffffffffffffffff166005547faa3a54b9f8430f4678fd65129ad1bf854fc721a8f456525716dec8e78f57884585604051610f9491906117cd565b60405180910390a460056000815480929190610faf90611a22565b919050555050505050565b600033905090565b60008060009054906101000a900473ffffffffffffffffffffffffffffffffffffffff169050816000806101000a81548173ffffffffffffffffffffffffffffffffffffffff021916908373ffffffffffffffffffffffffffffffffffffffff1602179055508173ffffffffffffffffffffffffffffffffffffffff168173ffffffffffffffffffffffffffffffffffffffff167f8be0079c531659141344cd1fd0a4f28419497f9722a3daafe3b4186f6b6457e060405160405180910390a35050565b600073ffffffffffffffffffffffffffffffffffffffff16600260009054906101000a900473ffffffffffffffffffffffffffffffffffffffff1673ffffffffffffffffffffffffffffffffffffffff161415611129578173ffffffffffffffffffffffffffffffffffffffff166108fc829081150290604051600060405180830381858888f19350505050158015611123573d6000803e3d6000fd5b506111dc565b600260009054906101000a900473ffffffffffffffffffffffffffffffffffffffff1673ffffffffffffffffffffffffffffffffffffffff166323b872dd3384846040518463ffffffff1660e01b815260040161118893929190611598565b602060405180830381600087803b1580156111a257600080fd5b505af11580156111b6573d6000803e3d6000fd5b505050506040513d601f19601f820116820180604052508101906111da9190611312565b505b5050565b6000813590506111ef81611c2c565b92915050565b60008151905061120481611c43565b92915050565b60008083601f84011261121c57600080fd5b8235905067ffffffffffffffff81111561123557600080fd5b60208301915083600182028301111561124d57600080fd5b9250929050565b60008135905061126381611c5a565b92915050565b60006020828403121561127b57600080fd5b6000611289848285016111e0565b91505092915050565b6000806000806000608086880312156112aa57600080fd5b60006112b8888289016111e0565b95505060206112c9888289016111e0565b94505060406112da88828901611254565b935050606086013567ffffffffffffffff8111156112f757600080fd5b6113038882890161120a565b92509250509295509295909350565b60006020828403121561132457600080fd5b6000611332848285016111f5565b91505092915050565b60006020828403121561134d57600080fd5b600061135b84828501611254565b91505092915050565b6000806040838503121561137757600080fd5b600061138585828601611254565b925050602061139685828601611254565b9150509250929050565b6113a981611971565b82525050565b6113b8816118fd565b82525050565b6113c78161191b565b82525050565b60006113d882611811565b6113e2818561181c565b93506113f28185602086016119ef565b6113fb81611ad3565b840191505092915050565b61140f81611983565b82525050565b61141e816119a7565b82525050565b600061143160268361182d565b915061143c82611ae4565b604082019050919050565b6000611454600d8361182d565b915061145f82611b33565b602082019050919050565b600061147760208361182d565b915061148282611b5c565b602082019050919050565b600061149a600d8361182d565b91506114a582611b85565b602082019050919050565b60006114bd60098361182d565b91506114c882611bae565b602082019050919050565b60006114e060008361181c565b91506114eb82611bd7565b600082019050919050565b600061150360138361182d565b915061150e82611bda565b602082019050919050565b6000611526601f8361182d565b915061153182611c03565b602082019050919050565b61154581611967565b82525050565b61155c61155782611967565b611a6b565b82525050565b600061156e828461154b565b60208201915081905092915050565b600060208201905061159260008301846113af565b92915050565b60006060820190506115ad60008301866113af565b6115ba60208301856113a0565b6115c7604083018461153c565b949350505050565b60006080820190506115e460008301876113af565b6115f160208301866113af565b6115fe604083018561153c565b818103606083015261161081846113cd565b905095945050505050565b600060808201905061163060008301866113af565b61163d60208301856113af565b61164a604083018461153c565b818103606083015261165b816114d3565b9050949350505050565b600060608201905061167a60008301866113af565b611687602083018561153c565b611694604083018461153c565b949350505050565b60006020820190506116b160008301846113be565b92915050565b60006020820190506116cc6000830184611406565b92915050565b60006020820190506116e76000830184611415565b92915050565b6000602082019050818103600083015261170681611424565b9050919050565b6000602082019050818103600083015261172681611447565b9050919050565b600060208201905081810360008301526117468161146a565b9050919050565b600060208201905081810360008301526117668161148d565b9050919050565b60006020820190508181036000830152611786816114b0565b9050919050565b600060208201905081810360008301526117a6816114f6565b9050919050565b600060208201905081810360008301526117c681611519565b9050919050565b60006020820190506117e2600083018461153c565b92915050565b60006040820190506117fd600083018561153c565b61180a602083018461153c565b9392505050565b600081519050919050565b600082825260208201905092915050565b600082825260208201905092915050565b600061184982611967565b915061185483611967565b92508261186457611863611aa4565b5b828204905092915050565b600061187a82611967565b915061188583611967565b9250817fffffffffffffffffffffffffffffffffffffffffffffffffffffffffffffffff04831182151516156118be576118bd611a75565b5b828202905092915050565b60006118d482611967565b91506118df83611967565b9250828210156118f2576118f1611a75565b5b828203905092915050565b600061190882611947565b9050919050565b60008115159050919050565b60007fffffffff0000000000000000000000000000000000000000000000000000000082169050919050565b600073ffffffffffffffffffffffffffffffffffffffff82169050919050565b6000819050919050565b600061197c826119cb565b9050919050565b600061198e82611995565b9050919050565b60006119a082611947565b9050919050565b60006119b2826119b9565b9050919050565b60006119c482611947565b9050919050565b60006119d6826119dd565b9050919050565b60006119e882611947565b9050919050565b60005b83811015611a0d5780820151818401526020810190506119f2565b83811115611a1c576000848401525b50505050565b6000611a2d82611967565b91507fffffffffffffffffffffffffffffffffffffffffffffffffffffffffffffffff821415611a6057611a5f611a75565b5b600182019050919050565b6000819050919050565b7f4e487b7100000000000000000000000000000000000000000000000000000000600052601160045260246000fd5b7f4e487b7100000000000000000000000000000000000000000000000000000000600052601260045260246000fd5b6000601f19601f8301169050919050565b7f4f776e61626c653a206e6577206f776e657220697320746865207a65726f206160008201527f6464726573730000000000000000000000000000000000000000000000000000602082015250565b7f494e56414c49442056414c554500000000000000000000000000000000000000600082015250565b7f4f776e61626c653a2063616c6c6572206973206e6f7420746865206f776e6572600082015250565b7f496e76616c6964206f7264657200000000000000000000000000000000000000600082015250565b7f4e6f74206f776e65720000000000000000000000000000000000000000000000600082015250565b50565b7f4163636570742043524142414441206f6e6c7900000000000000000000000000600082015250565b7f5265656e7472616e637947756172643a207265656e7472616e742063616c6c00600082015250565b611c35816118fd565b8114611c4057600080fd5b50565b611c4c8161190f565b8114611c5757600080fd5b50565b611c6381611967565b8114611c6e57600080fd5b5056fea2646970667358221220e33c977dc907485674b96c7566389d860ae2344290e01fea611d116a2b3c8eb864736f6c63430008030033",
    "immutableReferences": {},
    "source": "pragma solidity 0.8.3;\\n\\nimport \"@openzeppelin/contracts/access/Ownable.sol\";\\nimport \"@openzeppelin/contracts/token/ERC721/IERC721Receiver.sol\";\\nimport \"@openzeppelin/contracts/token/ERC721/IERC721.sol\";\\nimport \"@openzeppelin/contracts/token/ERC20/IERC20.sol\";\\nimport \"@openzeppelin/contracts/security/ReentrancyGuard.sol\";\\n\\ncontract MarketPlace is Ownable, IERC721Receiver, ReentrancyGuard {\\n    uint256 constant PERCENT_BASE = 10000;\\n\\n    IERC20 public paymentToken;\\n    IERC721 public cardToken;\\n\\n    struct Order {\\n        address owner;\\n        uint256 cardId;\\n        uint256 cardPrice;\\n    }\\n\\n    mapping(uint256 => Order) public sellOrders;\\n    uint256 public currentOrderId;\\n\\n    uint256 public tradingFeePercent;\\n    address public feeAddress;\\n\\n    event MakeSellOrder(uint256 indexed orderId, address indexed seller, uint256 indexed cardId, uint256 cardPrice);\\n    event BuyCard(uint256 indexed orderId, address indexed buyer, address indexed seller, uint256 cardId, uint256 cardPrice);\\n    event CancelSellOrder(uint256 orderId);\\n    event ChangeFee(uint256 newFee);\\n    event ChangeFeeAddress(address newAddress);\\n\\n    constructor(IERC20 token, IERC721 card, uint256 feePercent, address feeAddr) {\\n        paymentToken = token;\\n        cardToken = card;\\n        tradingFeePercent = feePercent;\\n        feeAddress = feeAddr;\\n    }\\n\\n    /**\\n     * Place an order to sell a card.\\n     */\\n    function makeSellOrder(uint256 cardId, uint256 cardPrice) external {\\n        cardToken.safeTransferFrom(msg.sender, address(this), cardId, abi.encodePacked(cardPrice));\\n    } \\n\\n    /**\\n     * Cancel sale\\n     */\\n    function cancelSellOrder(uint256 orderId) external {\\n        Order storage od = sellOrders[orderId];\\n        require(od.owner == msg.sender, \"Not owner\");\\n\\n        // Send back the card\\n        cardToken.safeTransferFrom(address(this), msg.sender, od.cardId, \"\");\\n\\n        delete sellOrders[orderId];\\n\\n        emit CancelSellOrder(orderId);\\n    }\\n\\n    /**\\n     * Buy card\\n     */\\n    function buyCard(uint256 orderId) nonReentrant() payable external {\\n        Order storage od = sellOrders[orderId];\\n        address payable seller = payable(od.owner);\\n        uint256 cardId = od.cardId;\\n\\n        require(seller != address(0), \"Invalid order\");\\n        od.owner = address(0);\\n\\n        // Transfer card to the msg.sender\\n        cardToken.safeTransferFrom(address(this), msg.sender, cardId, \"\");\\n\\n        // Transfer token\\n        uint256 price = od.cardPrice;\\n        uint256 receiveAmount = price;\\n\\n        if (address(paymentToken) == address(0x0)) {\\n            // Native coin\\n            require(msg.value == price, \"INVALID VALUE\");\\n        }\\n\\n        if (tradingFeePercent > 0) {\\n            uint256 fee =  price * tradingFeePercent / PERCENT_BASE;\\n            receiveAmount = price - fee;\\n            // paymentToken.transferFrom(msg.sender, feeAddress, fee);\\n            transferFee(payable(feeAddress), fee);\\n        }\\n\\n        // paymentToken.transferFrom(msg.sender, seller, receiveAmount);\\n        transferFee(seller, receiveAmount);\\n        emit BuyCard(orderId, msg.sender, seller, cardId, price);\\n\\n        delete sellOrders[orderId];\\n    }\\n\\n    /**\\n     * Send card to this contract to sell.\\n     * Data is the price.\\n     */\\n    function onERC721Received(\\n        address operator,\\n        address from,\\n        uint256 tokenId,\\n        bytes calldata data\\n    ) external override returns (bytes4) {\\n        require(msg.sender == address(cardToken), \"Accept CRABADA only\");\\n\\n        (uint256 cardPrice) = abi.decode(data,(uint256));\\n\\n        setSellCardInfo(from, tokenId, cardPrice);\\n\\n        return bytes4(keccak256(\"onERC721Received(address,address,uint256,bytes)\"));\\n    }\\n\\n\\n    /**\\n     * Place a sell order.\\n     * This function is called when this smart contract receives a card from the card smart contract\\n     */\\n    function setSellCardInfo(address seller, uint256 cardId, uint256 cardPrice) internal {\\n        Order memory od = Order(seller, cardId, cardPrice);\\n        sellOrders[currentOrderId] = od;\\n\\n        emit MakeSellOrder(currentOrderId, seller, cardId, cardPrice);\\n\\n        currentOrderId++;\\n    }\\n\\n    /**\\n     * Change fee\\n     */\\n    function setFee(uint256 newFee) external onlyOwner() {\\n        tradingFeePercent = newFee;\\n        emit ChangeFee(newFee);\\n    }\\n\\n    /**\\n     * Change fee address\\n     */\\n    function setFeeAddress(address newAddress) external onlyOwner() {\\n        feeAddress = newAddress;\\n        emit ChangeFeeAddress(newAddress);\\n    }\\n\\n    function transferFee(address payable to, uint256 amount) internal {\\n        if (address(paymentToken) == address(0x0)) {\\n            // Native coin\\n            to.transfer(amount);\\n        } else {\\n            paymentToken.transferFrom(msg.sender, to, amount);\\n        }\\n    }\\n\\n}",
    "sourcePath": "/home/phu/code/crabada/crabada-contracts/contracts/MarketPlace.sol",
    "compiler": {
        "name": "solc",
        "version": "0.8.3+commit.8d00100c.Emscripten.clang"
    },
    "schemaVersion": "3.4.3",
    "updatedAt": "2021-08-21T17:32:46.550Z",
    "devdoc": {
        "kind": "dev",
        "methods": {
            "owner()": {
                "details": "Returns the address of the current owner."
            },
            "renounceOwnership()": {
                "details": "Leaves the contract without owner. It will not be possible to call `onlyOwner` functions anymore. Can only be called by the current owner. NOTE: Renouncing ownership will leave the contract without an owner, thereby removing any functionality that is only available to the owner."
            },
            "transferOwnership(address)": {
                "details": "Transfers ownership of the contract to a new account (`newOwner`). Can only be called by the current owner."
            }
        },
        "version": 1
    },
    "userdoc": {
        "kind": "user",
        "methods": {
            "buyCard(uint256)": {
                "notice": "Buy card"
            },
            "cancelSellOrder(uint256)": {
                "notice": "Cancel sale"
            },
            "makeSellOrder(uint256,uint256)": {
                "notice": "Place an order to sell a card."
            },
            "onERC721Received(address,address,uint256,bytes)": {
                "notice": "Send card to this contract to sell. Data is the price."
            },
            "setFee(uint256)": {
                "notice": "Change fee"
            },
            "setFeeAddress(address)": {
                "notice": "Change fee address"
            }
        },
        "version": 1
    }
}